{
	"erc-20.sol": {
		"bankToken": {
			"abi": [
				{
					"inputs": [],
					"stateMutability": "nonpayable",
					"type": "constructor"
				},
				{
					"anonymous": false,
					"inputs": [
						{
							"indexed": true,
							"internalType": "address",
							"name": "owner",
							"type": "address"
						},
						{
							"indexed": true,
							"internalType": "address",
							"name": "spender",
							"type": "address"
						},
						{
							"indexed": false,
							"internalType": "uint256",
							"name": "value",
							"type": "uint256"
						}
					],
					"name": "Approval",
					"type": "event"
				},
				{
					"anonymous": false,
					"inputs": [
						{
							"indexed": true,
							"internalType": "address",
							"name": "from",
							"type": "address"
						},
						{
							"indexed": true,
							"internalType": "address",
							"name": "to",
							"type": "address"
						},
						{
							"indexed": false,
							"internalType": "uint256",
							"name": "value",
							"type": "uint256"
						}
					],
					"name": "Transfer",
					"type": "event"
				},
				{
					"inputs": [
						{
							"internalType": "address",
							"name": "owner",
							"type": "address"
						},
						{
							"internalType": "address",
							"name": "recipient",
							"type": "address"
						}
					],
					"name": "allowance",
					"outputs": [
						{
							"internalType": "uint256",
							"name": "",
							"type": "uint256"
						}
					],
					"stateMutability": "view",
					"type": "function"
				},
				{
					"inputs": [
						{
							"internalType": "address",
							"name": "recipient",
							"type": "address"
						},
						{
							"internalType": "uint256",
							"name": "amount",
							"type": "uint256"
						}
					],
					"name": "approve",
					"outputs": [
						{
							"internalType": "bool",
							"name": "",
							"type": "bool"
						}
					],
					"stateMutability": "nonpayable",
					"type": "function"
				},
				{
					"inputs": [
						{
							"internalType": "address",
							"name": "account",
							"type": "address"
						}
					],
					"name": "balanceOf",
					"outputs": [
						{
							"internalType": "uint256",
							"name": "",
							"type": "uint256"
						}
					],
					"stateMutability": "view",
					"type": "function"
				},
				{
					"inputs": [
						{
							"internalType": "uint256",
							"name": "amount",
							"type": "uint256"
						}
					],
					"name": "burn",
					"outputs": [],
					"stateMutability": "nonpayable",
					"type": "function"
				},
				{
					"inputs": [
						{
							"internalType": "address",
							"name": "toMintAddress",
							"type": "address"
						},
						{
							"internalType": "uint256",
							"name": "amount",
							"type": "uint256"
						}
					],
					"name": "mint",
					"outputs": [],
					"stateMutability": "nonpayable",
					"type": "function"
				},
				{
					"inputs": [],
					"name": "senderAddress",
					"outputs": [
						{
							"internalType": "address",
							"name": "",
							"type": "address"
						}
					],
					"stateMutability": "view",
					"type": "function"
				},
				{
					"inputs": [],
					"name": "totalSupply",
					"outputs": [
						{
							"internalType": "uint256",
							"name": "",
							"type": "uint256"
						}
					],
					"stateMutability": "view",
					"type": "function"
				},
				{
					"inputs": [
						{
							"internalType": "address",
							"name": "recipient",
							"type": "address"
						},
						{
							"internalType": "uint256",
							"name": "amount",
							"type": "uint256"
						}
					],
					"name": "transfer",
					"outputs": [
						{
							"internalType": "bool",
							"name": "",
							"type": "bool"
						}
					],
					"stateMutability": "nonpayable",
					"type": "function"
				},
				{
					"inputs": [
						{
							"internalType": "address",
							"name": "owner",
							"type": "address"
						},
						{
							"internalType": "address",
							"name": "recipient",
							"type": "address"
						},
						{
							"internalType": "uint256",
							"name": "amount",
							"type": "uint256"
						}
					],
					"name": "transferFrom",
					"outputs": [
						{
							"internalType": "bool",
							"name": "",
							"type": "bool"
						}
					],
					"stateMutability": "nonpayable",
					"type": "function"
				}
			],
			"devdoc": {
				"kind": "dev",
				"methods": {},
				"version": 1
			},
			"evm": {
				"assembly": "    /* \"erc-20.sol\":210:3403  contract bankToken is ERC20 {... */\n  mstore(0x40, 0x80)\n    /* \"erc-20.sol\":460:476  constructor() {} */\n  callvalue\n  dup1\n  iszero\n  tag_1\n  jumpi\n  0x00\n  dup1\n  revert\ntag_1:\n  pop\n    /* \"erc-20.sol\":210:3403  contract bankToken is ERC20 {... */\n  dataSize(sub_0)\n  dup1\n  dataOffset(sub_0)\n  0x00\n  codecopy\n  0x00\n  return\nstop\n\nsub_0: assembly {\n        /* \"erc-20.sol\":210:3403  contract bankToken is ERC20 {... */\n      mstore(0x40, 0x80)\n      callvalue\n      dup1\n      iszero\n      tag_1\n      jumpi\n      0x00\n      dup1\n      revert\n    tag_1:\n      pop\n      jumpi(tag_2, lt(calldatasize, 0x04))\n      shr(0xe0, calldataload(0x00))\n      dup1\n      0x42966c68\n      gt\n      tag_12\n      jumpi\n      dup1\n      0x42966c68\n      eq\n      tag_7\n      jumpi\n      dup1\n      0x4fc84791\n      eq\n      tag_8\n      jumpi\n      dup1\n      0x70a08231\n      eq\n      tag_9\n      jumpi\n      dup1\n      0xa9059cbb\n      eq\n      tag_10\n      jumpi\n      dup1\n      0xdd62ed3e\n      eq\n      tag_11\n      jumpi\n      jump(tag_2)\n    tag_12:\n      dup1\n      0x095ea7b3\n      eq\n      tag_3\n      jumpi\n      dup1\n      0x18160ddd\n      eq\n      tag_4\n      jumpi\n      dup1\n      0x23b872dd\n      eq\n      tag_5\n      jumpi\n      dup1\n      0x40c10f19\n      eq\n      tag_6\n      jumpi\n    tag_2:\n      0x00\n      dup1\n      revert\n        /* \"erc-20.sol\":2545:2788  function approve(address recipient, uint amount) external returns (bool) {... */\n    tag_3:\n      tag_13\n      0x04\n      dup1\n      calldatasize\n      sub\n      dup2\n      add\n      swap1\n      tag_14\n      swap2\n      swap1\n      tag_15\n      jump\t// in\n    tag_14:\n      tag_16\n      jump\t// in\n    tag_13:\n      mload(0x40)\n      tag_17\n      swap2\n      swap1\n      tag_18\n      jump\t// in\n    tag_17:\n      mload(0x40)\n      dup1\n      swap2\n      sub\n      swap1\n      return\n        /* \"erc-20.sol\":577:667  function totalSupply() external view returns (uint) {... */\n    tag_4:\n      tag_19\n      tag_20\n      jump\t// in\n    tag_19:\n      mload(0x40)\n      tag_21\n      swap2\n      swap1\n      tag_22\n      jump\t// in\n    tag_21:\n      mload(0x40)\n      dup1\n      swap2\n      sub\n      swap1\n      return\n        /* \"erc-20.sol\":1643:2539  function transferFrom(address owner, address recipient, uint amount) external returns (bool) {... */\n    tag_5:\n      tag_23\n      0x04\n      dup1\n      calldatasize\n      sub\n      dup2\n      add\n      swap1\n      tag_24\n      swap2\n      swap1\n      tag_25\n      jump\t// in\n    tag_24:\n      tag_26\n      jump\t// in\n    tag_23:\n      mload(0x40)\n      tag_27\n      swap2\n      swap1\n      tag_18\n      jump\t// in\n    tag_27:\n      mload(0x40)\n      dup1\n      swap2\n      sub\n      swap1\n      return\n        /* \"erc-20.sol\":2935:3180  function mint(address toMintAddress, uint amount) public {... */\n    tag_6:\n      tag_28\n      0x04\n      dup1\n      calldatasize\n      sub\n      dup2\n      add\n      swap1\n      tag_29\n      swap2\n      swap1\n      tag_15\n      jump\t// in\n    tag_29:\n      tag_30\n      jump\t// in\n    tag_28:\n      stop\n        /* \"erc-20.sol\":3186:3401  function burn(uint amount) public {... */\n    tag_7:\n      tag_31\n      0x04\n      dup1\n      calldatasize\n      sub\n      dup2\n      add\n      swap1\n      tag_32\n      swap2\n      swap1\n      tag_33\n      jump\t// in\n    tag_32:\n      tag_34\n      jump\t// in\n    tag_31:\n      stop\n        /* \"erc-20.sol\":482:571  function senderAddress() public view returns (address) {... */\n    tag_8:\n      tag_35\n      tag_36\n      jump\t// in\n    tag_35:\n      mload(0x40)\n      tag_37\n      swap2\n      swap1\n      tag_38\n      jump\t// in\n    tag_37:\n      mload(0x40)\n      dup1\n      swap2\n      sub\n      swap1\n      return\n        /* \"erc-20.sol\":673:790  function balanceOf(address account) external view returns (uint) {... */\n    tag_9:\n      tag_39\n      0x04\n      dup1\n      calldatasize\n      sub\n      dup2\n      add\n      swap1\n      tag_40\n      swap2\n      swap1\n      tag_41\n      jump\t// in\n    tag_40:\n      tag_42\n      jump\t// in\n    tag_39:\n      mload(0x40)\n      tag_43\n      swap2\n      swap1\n      tag_22\n      jump\t// in\n    tag_43:\n      mload(0x40)\n      dup1\n      swap2\n      sub\n      swap1\n      return\n        /* \"erc-20.sol\":800:1637  function transfer(address recipient, uint amount) external returns (bool) {... */\n    tag_10:\n      tag_44\n      0x04\n      dup1\n      calldatasize\n      sub\n      dup2\n      add\n      swap1\n      tag_45\n      swap2\n      swap1\n      tag_15\n      jump\t// in\n    tag_45:\n      tag_46\n      jump\t// in\n    tag_44:\n      mload(0x40)\n      tag_47\n      swap2\n      swap1\n      tag_18\n      jump\t// in\n    tag_47:\n      mload(0x40)\n      dup1\n      swap2\n      sub\n      swap1\n      return\n        /* \"erc-20.sol\":2794:2929  function allowance(address owner, address recipient) external view returns (uint) {... */\n    tag_11:\n      tag_48\n      0x04\n      dup1\n      calldatasize\n      sub\n      dup2\n      add\n      swap1\n      tag_49\n      swap2\n      swap1\n      tag_50\n      jump\t// in\n    tag_49:\n      tag_51\n      jump\t// in\n    tag_48:\n      mload(0x40)\n      tag_52\n      swap2\n      swap1\n      tag_22\n      jump\t// in\n    tag_52:\n      mload(0x40)\n      dup1\n      swap2\n      sub\n      swap1\n      return\n        /* \"erc-20.sol\":2545:2788  function approve(address recipient, uint amount) external returns (bool) {... */\n    tag_16:\n        /* \"erc-20.sol\":2612:2616  bool */\n      0x00\n        /* \"erc-20.sol\":2628:2642  address sender */\n      dup1\n        /* \"erc-20.sol\":2645:2660  senderAddress() */\n      tag_54\n        /* \"erc-20.sol\":2645:2658  senderAddress */\n      tag_36\n        /* \"erc-20.sol\":2645:2660  senderAddress() */\n      jump\t// in\n    tag_54:\n        /* \"erc-20.sol\":2628:2660  address sender = senderAddress() */\n      swap1\n      pop\n        /* \"erc-20.sol\":2703:2709  amount */\n      dup3\n        /* \"erc-20.sol\":2670:2681  _allowances */\n      0x04\n        /* \"erc-20.sol\":2670:2689  _allowances[sender] */\n      0x00\n        /* \"erc-20.sol\":2682:2688  sender */\n      dup4\n        /* \"erc-20.sol\":2670:2689  _allowances[sender] */\n      0xffffffffffffffffffffffffffffffffffffffff\n      and\n      0xffffffffffffffffffffffffffffffffffffffff\n      and\n      dup2\n      mstore\n      0x20\n      add\n      swap1\n      dup2\n      mstore\n      0x20\n      add\n      0x00\n      keccak256\n        /* \"erc-20.sol\":2670:2700  _allowances[sender][recipient] */\n      0x00\n        /* \"erc-20.sol\":2690:2699  recipient */\n      dup7\n        /* \"erc-20.sol\":2670:2700  _allowances[sender][recipient] */\n      0xffffffffffffffffffffffffffffffffffffffff\n      and\n      0xffffffffffffffffffffffffffffffffffffffff\n      and\n      dup2\n      mstore\n      0x20\n      add\n      swap1\n      dup2\n      mstore\n      0x20\n      add\n      0x00\n      keccak256\n        /* \"erc-20.sol\":2670:2709  _allowances[sender][recipient] = amount */\n      dup2\n      swap1\n      sstore\n      pop\n        /* \"erc-20.sol\":2741:2750  recipient */\n      dup4\n        /* \"erc-20.sol\":2724:2759  Approval(sender, recipient, amount) */\n      0xffffffffffffffffffffffffffffffffffffffff\n      and\n        /* \"erc-20.sol\":2733:2739  sender */\n      dup2\n        /* \"erc-20.sol\":2724:2759  Approval(sender, recipient, amount) */\n      0xffffffffffffffffffffffffffffffffffffffff\n      and\n      0x8c5be1e5ebec7d5bd14f71427d1e84f3dd0314c0f7b2291e5b200ac8c7c3b925\n        /* \"erc-20.sol\":2752:2758  amount */\n      dup6\n        /* \"erc-20.sol\":2724:2759  Approval(sender, recipient, amount) */\n      mload(0x40)\n      tag_55\n      swap2\n      swap1\n      tag_22\n      jump\t// in\n    tag_55:\n      mload(0x40)\n      dup1\n      swap2\n      sub\n      swap1\n      log3\n        /* \"erc-20.sol\":2777:2781  true */\n      0x01\n        /* \"erc-20.sol\":2770:2781  return true */\n      swap2\n      pop\n      pop\n        /* \"erc-20.sol\":2545:2788  function approve(address recipient, uint amount) external returns (bool) {... */\n      swap3\n      swap2\n      pop\n      pop\n      jump\t// out\n        /* \"erc-20.sol\":577:667  function totalSupply() external view returns (uint) {... */\n    tag_20:\n        /* \"erc-20.sol\":623:627  uint */\n      0x00\n        /* \"erc-20.sol\":646:660  totalSupplyVal */\n      dup1\n      sload\n        /* \"erc-20.sol\":639:660  return totalSupplyVal */\n      swap1\n      pop\n        /* \"erc-20.sol\":577:667  function totalSupply() external view returns (uint) {... */\n      swap1\n      jump\t// out\n        /* \"erc-20.sol\":1643:2539  function transferFrom(address owner, address recipient, uint amount) external returns (bool) {... */\n    tag_26:\n        /* \"erc-20.sol\":1730:1734  bool */\n      0x00\n        /* \"erc-20.sol\":1772:1773  0 */\n      dup1\n        /* \"erc-20.sol\":1755:1774  owner != address(0) */\n      0xffffffffffffffffffffffffffffffffffffffff\n      and\n        /* \"erc-20.sol\":1755:1760  owner */\n      dup5\n        /* \"erc-20.sol\":1755:1774  owner != address(0) */\n      0xffffffffffffffffffffffffffffffffffffffff\n      and\n      sub\n        /* \"erc-20.sol\":1747:1804  require(owner != address(0), \"sender address must exist\") */\n      tag_58\n      jumpi\n      mload(0x40)\n      0x08c379a000000000000000000000000000000000000000000000000000000000\n      dup2\n      mstore\n      0x04\n      add\n      tag_59\n      swap1\n      tag_60\n      jump\t// in\n    tag_59:\n      mload(0x40)\n      dup1\n      swap2\n      sub\n      swap1\n      revert\n    tag_58:\n        /* \"erc-20.sol\":1843:1844  0 */\n      0x00\n        /* \"erc-20.sol\":1822:1845  recipient != address(0) */\n      0xffffffffffffffffffffffffffffffffffffffff\n      and\n        /* \"erc-20.sol\":1822:1831  recipient */\n      dup4\n        /* \"erc-20.sol\":1822:1845  recipient != address(0) */\n      0xffffffffffffffffffffffffffffffffffffffff\n      and\n      sub\n        /* \"erc-20.sol\":1814:1879  require(recipient != address(0) , \"receipent address must exist\") */\n      tag_61\n      jumpi\n      mload(0x40)\n      0x08c379a000000000000000000000000000000000000000000000000000000000\n      dup2\n      mstore\n      0x04\n      add\n      tag_62\n      swap1\n      tag_63\n      jump\t// in\n    tag_62:\n      mload(0x40)\n      dup1\n      swap2\n      sub\n      swap1\n      revert\n    tag_61:\n        /* \"erc-20.sol\":1890:1910  uint256 ownerBalance */\n      0x00\n        /* \"erc-20.sol\":1913:1932  _balanceOfAddresses */\n      0x03\n        /* \"erc-20.sol\":1913:1939  _balanceOfAddresses[owner] */\n      0x00\n        /* \"erc-20.sol\":1933:1938  owner */\n      dup7\n        /* \"erc-20.sol\":1913:1939  _balanceOfAddresses[owner] */\n      0xffffffffffffffffffffffffffffffffffffffff\n      and\n      0xffffffffffffffffffffffffffffffffffffffff\n      and\n      dup2\n      mstore\n      0x20\n      add\n      swap1\n      dup2\n      mstore\n      0x20\n      add\n      0x00\n      keccak256\n      sload\n        /* \"erc-20.sol\":1890:1939  uint256 ownerBalance = _balanceOfAddresses[owner] */\n      swap1\n      pop\n        /* \"erc-20.sol\":1949:1967  uint allowedTokens */\n      0x00\n        /* \"erc-20.sol\":1970:1981  _allowances */\n      0x04\n        /* \"erc-20.sol\":1970:1988  _allowances[owner] */\n      0x00\n        /* \"erc-20.sol\":1982:1987  owner */\n      dup8\n        /* \"erc-20.sol\":1970:1988  _allowances[owner] */\n      0xffffffffffffffffffffffffffffffffffffffff\n      and\n      0xffffffffffffffffffffffffffffffffffffffff\n      and\n      dup2\n      mstore\n      0x20\n      add\n      swap1\n      dup2\n      mstore\n      0x20\n      add\n      0x00\n      keccak256\n        /* \"erc-20.sol\":1970:2000  _allowances[owner][msg.sender] */\n      0x00\n        /* \"erc-20.sol\":1989:1999  msg.sender */\n      caller\n        /* \"erc-20.sol\":1970:2000  _allowances[owner][msg.sender] */\n      0xffffffffffffffffffffffffffffffffffffffff\n      and\n      0xffffffffffffffffffffffffffffffffffffffff\n      and\n      dup2\n      mstore\n      0x20\n      add\n      swap1\n      dup2\n      mstore\n      0x20\n      add\n      0x00\n      keccak256\n      sload\n        /* \"erc-20.sol\":1949:2000  uint allowedTokens = _allowances[owner][msg.sender] */\n      swap1\n      pop\n        /* \"erc-20.sol\":2029:2041  ownerBalance */\n      dup2\n        /* \"erc-20.sol\":2019:2025  amount */\n      dup5\n        /* \"erc-20.sol\":2019:2041  amount <= ownerBalance */\n      gt\n      iszero\n        /* \"erc-20.sol\":2011:2112  require(amount <= ownerBalance, \"owner balance should be equal or more then the amount to transfer.\") */\n      tag_64\n      jumpi\n      mload(0x40)\n      0x08c379a000000000000000000000000000000000000000000000000000000000\n      dup2\n      mstore\n      0x04\n      add\n      tag_65\n      swap1\n      tag_66\n      jump\t// in\n    tag_65:\n      mload(0x40)\n      dup1\n      swap2\n      sub\n      swap1\n      revert\n    tag_64:\n        /* \"erc-20.sol\":2140:2153  allowedTokens */\n      dup1\n        /* \"erc-20.sol\":2130:2136  amount */\n      dup5\n        /* \"erc-20.sol\":2130:2153  amount <= allowedTokens */\n      gt\n      iszero\n        /* \"erc-20.sol\":2122:2222  require(amount <= allowedTokens, \"allowed token should be more then the amount we want to transfer\") */\n      tag_67\n      jumpi\n      mload(0x40)\n      0x08c379a000000000000000000000000000000000000000000000000000000000\n      dup2\n      mstore\n      0x04\n      add\n      tag_68\n      swap1\n      tag_69\n      jump\t// in\n    tag_68:\n      mload(0x40)\n      dup1\n      swap2\n      sub\n      swap1\n      revert\n    tag_67:\n        /* \"erc-20.sol\":2291:2297  amount */\n      dup4\n        /* \"erc-20.sol\":2262:2281  _balanceOfAddresses */\n      0x03\n        /* \"erc-20.sol\":2262:2288  _balanceOfAddresses[owner] */\n      0x00\n        /* \"erc-20.sol\":2282:2287  owner */\n      dup9\n        /* \"erc-20.sol\":2262:2288  _balanceOfAddresses[owner] */\n      0xffffffffffffffffffffffffffffffffffffffff\n      and\n      0xffffffffffffffffffffffffffffffffffffffff\n      and\n      dup2\n      mstore\n      0x20\n      add\n      swap1\n      dup2\n      mstore\n      0x20\n      add\n      0x00\n      keccak256\n      sload\n        /* \"erc-20.sol\":2262:2297  _balanceOfAddresses[owner] - amount */\n      tag_70\n      swap2\n      swap1\n      tag_71\n      jump\t// in\n    tag_70:\n        /* \"erc-20.sol\":2233:2252  _balanceOfAddresses */\n      0x03\n        /* \"erc-20.sol\":2233:2259  _balanceOfAddresses[owner] */\n      0x00\n        /* \"erc-20.sol\":2253:2258  owner */\n      dup9\n        /* \"erc-20.sol\":2233:2259  _balanceOfAddresses[owner] */\n      0xffffffffffffffffffffffffffffffffffffffff\n      and\n      0xffffffffffffffffffffffffffffffffffffffff\n      and\n      dup2\n      mstore\n      0x20\n      add\n      swap1\n      dup2\n      mstore\n      0x20\n      add\n      0x00\n      keccak256\n        /* \"erc-20.sol\":2233:2297  _balanceOfAddresses[owner] = _balanceOfAddresses[owner] - amount */\n      dup2\n      swap1\n      sstore\n      pop\n        /* \"erc-20.sol\":2373:2379  amount */\n      dup4\n        /* \"erc-20.sol\":2340:2351  _allowances */\n      0x04\n        /* \"erc-20.sol\":2340:2358  _allowances[owner] */\n      0x00\n        /* \"erc-20.sol\":2352:2357  owner */\n      dup9\n        /* \"erc-20.sol\":2340:2358  _allowances[owner] */\n      0xffffffffffffffffffffffffffffffffffffffff\n      and\n      0xffffffffffffffffffffffffffffffffffffffff\n      and\n      dup2\n      mstore\n      0x20\n      add\n      swap1\n      dup2\n      mstore\n      0x20\n      add\n      0x00\n      keccak256\n        /* \"erc-20.sol\":2340:2370  _allowances[owner][msg.sender] */\n      0x00\n        /* \"erc-20.sol\":2359:2369  msg.sender */\n      caller\n        /* \"erc-20.sol\":2340:2370  _allowances[owner][msg.sender] */\n      0xffffffffffffffffffffffffffffffffffffffff\n      and\n      0xffffffffffffffffffffffffffffffffffffffff\n      and\n      dup2\n      mstore\n      0x20\n      add\n      swap1\n      dup2\n      mstore\n      0x20\n      add\n      0x00\n      keccak256\n      sload\n        /* \"erc-20.sol\":2340:2379  _allowances[owner][msg.sender] - amount */\n      tag_72\n      swap2\n      swap1\n      tag_71\n      jump\t// in\n    tag_72:\n        /* \"erc-20.sol\":2307:2318  _allowances */\n      0x04\n        /* \"erc-20.sol\":2307:2325  _allowances[owner] */\n      0x00\n        /* \"erc-20.sol\":2319:2324  owner */\n      dup9\n        /* \"erc-20.sol\":2307:2325  _allowances[owner] */\n      0xffffffffffffffffffffffffffffffffffffffff\n      and\n      0xffffffffffffffffffffffffffffffffffffffff\n      and\n      dup2\n      mstore\n      0x20\n      add\n      swap1\n      dup2\n      mstore\n      0x20\n      add\n      0x00\n      keccak256\n        /* \"erc-20.sol\":2307:2337  _allowances[owner][msg.sender] */\n      0x00\n        /* \"erc-20.sol\":2326:2336  msg.sender */\n      caller\n        /* \"erc-20.sol\":2307:2337  _allowances[owner][msg.sender] */\n      0xffffffffffffffffffffffffffffffffffffffff\n      and\n      0xffffffffffffffffffffffffffffffffffffffff\n      and\n      dup2\n      mstore\n      0x20\n      add\n      swap1\n      dup2\n      mstore\n      0x20\n      add\n      0x00\n      keccak256\n        /* \"erc-20.sol\":2307:2379  _allowances[owner][msg.sender] = _allowances[owner][msg.sender] - amount */\n      dup2\n      swap1\n      sstore\n      pop\n        /* \"erc-20.sol\":2455:2461  amount */\n      dup4\n        /* \"erc-20.sol\":2422:2441  _balanceOfAddresses */\n      0x03\n        /* \"erc-20.sol\":2422:2452  _balanceOfAddresses[recipient] */\n      0x00\n        /* \"erc-20.sol\":2442:2451  recipient */\n      dup8\n        /* \"erc-20.sol\":2422:2452  _balanceOfAddresses[recipient] */\n      0xffffffffffffffffffffffffffffffffffffffff\n      and\n      0xffffffffffffffffffffffffffffffffffffffff\n      and\n      dup2\n      mstore\n      0x20\n      add\n      swap1\n      dup2\n      mstore\n      0x20\n      add\n      0x00\n      keccak256\n      sload\n        /* \"erc-20.sol\":2422:2461  _balanceOfAddresses[recipient] + amount */\n      tag_73\n      swap2\n      swap1\n      tag_74\n      jump\t// in\n    tag_73:\n        /* \"erc-20.sol\":2389:2408  _balanceOfAddresses */\n      0x03\n        /* \"erc-20.sol\":2389:2419  _balanceOfAddresses[recipient] */\n      0x00\n        /* \"erc-20.sol\":2409:2418  recipient */\n      dup8\n        /* \"erc-20.sol\":2389:2419  _balanceOfAddresses[recipient] */\n      0xffffffffffffffffffffffffffffffffffffffff\n      and\n      0xffffffffffffffffffffffffffffffffffffffff\n      and\n      dup2\n      mstore\n      0x20\n      add\n      swap1\n      dup2\n      mstore\n      0x20\n      add\n      0x00\n      keccak256\n        /* \"erc-20.sol\":2389:2461  _balanceOfAddresses[recipient] = _balanceOfAddresses[recipient] + amount */\n      dup2\n      swap1\n      sstore\n      pop\n        /* \"erc-20.sol\":2493:2502  recipient */\n      dup5\n        /* \"erc-20.sol\":2477:2511  Transfer(owner, recipient, amount) */\n      0xffffffffffffffffffffffffffffffffffffffff\n      and\n        /* \"erc-20.sol\":2486:2491  owner */\n      dup7\n        /* \"erc-20.sol\":2477:2511  Transfer(owner, recipient, amount) */\n      0xffffffffffffffffffffffffffffffffffffffff\n      and\n      0xddf252ad1be2c89b69c2b068fc378daa952ba7f163c4a11628f55a4df523b3ef\n        /* \"erc-20.sol\":2504:2510  amount */\n      dup7\n        /* \"erc-20.sol\":2477:2511  Transfer(owner, recipient, amount) */\n      mload(0x40)\n      tag_75\n      swap2\n      swap1\n      tag_22\n      jump\t// in\n    tag_75:\n      mload(0x40)\n      dup1\n      swap2\n      sub\n      swap1\n      log3\n        /* \"erc-20.sol\":2528:2532  true */\n      0x01\n        /* \"erc-20.sol\":2521:2532  return true */\n      swap3\n      pop\n      pop\n      pop\n        /* \"erc-20.sol\":1643:2539  function transferFrom(address owner, address recipient, uint amount) external returns (bool) {... */\n      swap4\n      swap3\n      pop\n      pop\n      pop\n      jump\t// out\n        /* \"erc-20.sol\":2935:3180  function mint(address toMintAddress, uint amount) public {... */\n    tag_30:\n        /* \"erc-20.sol\":3002:3016  address sender */\n      0x00\n        /* \"erc-20.sol\":3019:3034  senderAddress() */\n      tag_77\n        /* \"erc-20.sol\":3019:3032  senderAddress */\n      tag_36\n        /* \"erc-20.sol\":3019:3034  senderAddress() */\n      jump\t// in\n    tag_77:\n        /* \"erc-20.sol\":3002:3034  address sender = senderAddress() */\n      swap1\n      pop\n        /* \"erc-20.sol\":3082:3088  amount */\n      dup2\n        /* \"erc-20.sol\":3044:3063  _balanceOfAddresses */\n      0x03\n        /* \"erc-20.sol\":3044:3078  _balanceOfAddresses[toMintAddress] */\n      0x00\n        /* \"erc-20.sol\":3064:3077  toMintAddress */\n      dup6\n        /* \"erc-20.sol\":3044:3078  _balanceOfAddresses[toMintAddress] */\n      0xffffffffffffffffffffffffffffffffffffffff\n      and\n      0xffffffffffffffffffffffffffffffffffffffff\n      and\n      dup2\n      mstore\n      0x20\n      add\n      swap1\n      dup2\n      mstore\n      0x20\n      add\n      0x00\n      keccak256\n      0x00\n        /* \"erc-20.sol\":3044:3088  _balanceOfAddresses[toMintAddress] += amount */\n      dup3\n      dup3\n      sload\n      tag_78\n      swap2\n      swap1\n      tag_74\n      jump\t// in\n    tag_78:\n      swap3\n      pop\n      pop\n      dup2\n      swap1\n      sstore\n      pop\n        /* \"erc-20.sol\":3116:3122  amount */\n      dup2\n        /* \"erc-20.sol\":3098:3112  totalSupplyVal */\n      0x00\n      dup1\n        /* \"erc-20.sol\":3098:3122  totalSupplyVal += amount */\n      dup3\n      dup3\n      sload\n      tag_79\n      swap2\n      swap1\n      tag_74\n      jump\t// in\n    tag_79:\n      swap3\n      pop\n      pop\n      dup2\n      swap1\n      sstore\n      pop\n        /* \"erc-20.sol\":3158:3164  sender */\n      dup1\n        /* \"erc-20.sol\":3137:3173  Transfer(address(0), sender, amount) */\n      0xffffffffffffffffffffffffffffffffffffffff\n      and\n        /* \"erc-20.sol\":3154:3155  0 */\n      0x00\n        /* \"erc-20.sol\":3137:3173  Transfer(address(0), sender, amount) */\n      0xffffffffffffffffffffffffffffffffffffffff\n      and\n      0xddf252ad1be2c89b69c2b068fc378daa952ba7f163c4a11628f55a4df523b3ef\n        /* \"erc-20.sol\":3166:3172  amount */\n      dup5\n        /* \"erc-20.sol\":3137:3173  Transfer(address(0), sender, amount) */\n      mload(0x40)\n      tag_80\n      swap2\n      swap1\n      tag_22\n      jump\t// in\n    tag_80:\n      mload(0x40)\n      dup1\n      swap2\n      sub\n      swap1\n      log3\n        /* \"erc-20.sol\":2992:3180  {... */\n      pop\n        /* \"erc-20.sol\":2935:3180  function mint(address toMintAddress, uint amount) public {... */\n      pop\n      pop\n      jump\t// out\n        /* \"erc-20.sol\":3186:3401  function burn(uint amount) public {... */\n    tag_34:\n        /* \"erc-20.sol\":3230:3244  address sender */\n      0x00\n        /* \"erc-20.sol\":3247:3262  senderAddress() */\n      tag_82\n        /* \"erc-20.sol\":3247:3260  senderAddress */\n      tag_36\n        /* \"erc-20.sol\":3247:3262  senderAddress() */\n      jump\t// in\n    tag_82:\n        /* \"erc-20.sol\":3230:3262  address sender = senderAddress() */\n      swap1\n      pop\n        /* \"erc-20.sol\":3303:3309  amount */\n      dup2\n        /* \"erc-20.sol\":3272:3291  _balanceOfAddresses */\n      0x03\n        /* \"erc-20.sol\":3272:3299  _balanceOfAddresses[sender] */\n      0x00\n        /* \"erc-20.sol\":3292:3298  sender */\n      dup4\n        /* \"erc-20.sol\":3272:3299  _balanceOfAddresses[sender] */\n      0xffffffffffffffffffffffffffffffffffffffff\n      and\n      0xffffffffffffffffffffffffffffffffffffffff\n      and\n      dup2\n      mstore\n      0x20\n      add\n      swap1\n      dup2\n      mstore\n      0x20\n      add\n      0x00\n      keccak256\n      0x00\n        /* \"erc-20.sol\":3272:3309  _balanceOfAddresses[sender] -= amount */\n      dup3\n      dup3\n      sload\n      tag_83\n      swap2\n      swap1\n      tag_71\n      jump\t// in\n    tag_83:\n      swap3\n      pop\n      pop\n      dup2\n      swap1\n      sstore\n      pop\n        /* \"erc-20.sol\":3337:3343  amount */\n      dup2\n        /* \"erc-20.sol\":3319:3333  totalSupplyVal */\n      0x00\n      dup1\n        /* \"erc-20.sol\":3319:3343  totalSupplyVal -= amount */\n      dup3\n      dup3\n      sload\n      tag_84\n      swap2\n      swap1\n      tag_71\n      jump\t// in\n    tag_84:\n      swap3\n      pop\n      pop\n      dup2\n      swap1\n      sstore\n      pop\n        /* \"erc-20.sol\":3383:3384  0 */\n      0x00\n        /* \"erc-20.sol\":3358:3394  Transfer(sender, address(0), amount) */\n      0xffffffffffffffffffffffffffffffffffffffff\n      and\n        /* \"erc-20.sol\":3367:3373  sender */\n      dup2\n        /* \"erc-20.sol\":3358:3394  Transfer(sender, address(0), amount) */\n      0xffffffffffffffffffffffffffffffffffffffff\n      and\n      0xddf252ad1be2c89b69c2b068fc378daa952ba7f163c4a11628f55a4df523b3ef\n        /* \"erc-20.sol\":3387:3393  amount */\n      dup5\n        /* \"erc-20.sol\":3358:3394  Transfer(sender, address(0), amount) */\n      mload(0x40)\n      tag_85\n      swap2\n      swap1\n      tag_22\n      jump\t// in\n    tag_85:\n      mload(0x40)\n      dup1\n      swap2\n      sub\n      swap1\n      log3\n        /* \"erc-20.sol\":3220:3401  {... */\n      pop\n        /* \"erc-20.sol\":3186:3401  function burn(uint amount) public {... */\n      pop\n      jump\t// out\n        /* \"erc-20.sol\":482:571  function senderAddress() public view returns (address) {... */\n    tag_36:\n        /* \"erc-20.sol\":528:535  address */\n      0x00\n        /* \"erc-20.sol\":554:564  msg.sender */\n      caller\n        /* \"erc-20.sol\":547:564  return msg.sender */\n      swap1\n      pop\n        /* \"erc-20.sol\":482:571  function senderAddress() public view returns (address) {... */\n      swap1\n      jump\t// out\n        /* \"erc-20.sol\":673:790  function balanceOf(address account) external view returns (uint) {... */\n    tag_42:\n        /* \"erc-20.sol\":732:736  uint */\n      0x00\n        /* \"erc-20.sol\":755:774  _balanceOfAddresses */\n      0x03\n        /* \"erc-20.sol\":755:783  _balanceOfAddresses[account] */\n      0x00\n        /* \"erc-20.sol\":775:782  account */\n      dup4\n        /* \"erc-20.sol\":755:783  _balanceOfAddresses[account] */\n      0xffffffffffffffffffffffffffffffffffffffff\n      and\n      0xffffffffffffffffffffffffffffffffffffffff\n      and\n      dup2\n      mstore\n      0x20\n      add\n      swap1\n      dup2\n      mstore\n      0x20\n      add\n      0x00\n      keccak256\n      sload\n        /* \"erc-20.sol\":748:783  return _balanceOfAddresses[account] */\n      swap1\n      pop\n        /* \"erc-20.sol\":673:790  function balanceOf(address account) external view returns (uint) {... */\n      swap2\n      swap1\n      pop\n      jump\t// out\n        /* \"erc-20.sol\":800:1637  function transfer(address recipient, uint amount) external returns (bool) {... */\n    tag_46:\n        /* \"erc-20.sol\":868:872  bool */\n      0x00\n        /* \"erc-20.sol\":1174:1188  address sender */\n      dup1\n        /* \"erc-20.sol\":1191:1206  senderAddress() */\n      tag_89\n        /* \"erc-20.sol\":1191:1204  senderAddress */\n      tag_36\n        /* \"erc-20.sol\":1191:1206  senderAddress() */\n      jump\t// in\n    tag_89:\n        /* \"erc-20.sol\":1174:1206  address sender = senderAddress() */\n      swap1\n      pop\n        /* \"erc-20.sol\":1243:1244  0 */\n      0x00\n        /* \"erc-20.sol\":1225:1245  sender != address(0) */\n      0xffffffffffffffffffffffffffffffffffffffff\n      and\n        /* \"erc-20.sol\":1225:1231  sender */\n      dup2\n        /* \"erc-20.sol\":1225:1245  sender != address(0) */\n      0xffffffffffffffffffffffffffffffffffffffff\n      and\n      sub\n        /* \"erc-20.sol\":1217:1275  require(sender != address(0), \"sender address must exist\") */\n      tag_90\n      jumpi\n      mload(0x40)\n      0x08c379a000000000000000000000000000000000000000000000000000000000\n      dup2\n      mstore\n      0x04\n      add\n      tag_91\n      swap1\n      tag_60\n      jump\t// in\n    tag_91:\n      mload(0x40)\n      dup1\n      swap2\n      sub\n      swap1\n      revert\n    tag_90:\n        /* \"erc-20.sol\":1314:1315  0 */\n      0x00\n        /* \"erc-20.sol\":1293:1316  recipient != address(0) */\n      0xffffffffffffffffffffffffffffffffffffffff\n      and\n        /* \"erc-20.sol\":1293:1302  recipient */\n      dup5\n        /* \"erc-20.sol\":1293:1316  recipient != address(0) */\n      0xffffffffffffffffffffffffffffffffffffffff\n      and\n      sub\n        /* \"erc-20.sol\":1285:1350  require(recipient != address(0) , \"receipent address must exist\") */\n      tag_92\n      jumpi\n      mload(0x40)\n      0x08c379a000000000000000000000000000000000000000000000000000000000\n      dup2\n      mstore\n      0x04\n      add\n      tag_93\n      swap1\n      tag_63\n      jump\t// in\n    tag_93:\n      mload(0x40)\n      dup1\n      swap2\n      sub\n      swap1\n      revert\n    tag_92:\n        /* \"erc-20.sol\":1361:1382  uint256 senderBalance */\n      0x00\n        /* \"erc-20.sol\":1385:1404  _balanceOfAddresses */\n      0x03\n        /* \"erc-20.sol\":1385:1412  _balanceOfAddresses[sender] */\n      0x00\n        /* \"erc-20.sol\":1405:1411  sender */\n      dup4\n        /* \"erc-20.sol\":1385:1412  _balanceOfAddresses[sender] */\n      0xffffffffffffffffffffffffffffffffffffffff\n      and\n      0xffffffffffffffffffffffffffffffffffffffff\n      and\n      dup2\n      mstore\n      0x20\n      add\n      swap1\n      dup2\n      mstore\n      0x20\n      add\n      0x00\n      keccak256\n      sload\n        /* \"erc-20.sol\":1361:1412  uint256 senderBalance = _balanceOfAddresses[sender] */\n      swap1\n      pop\n        /* \"erc-20.sol\":1469:1475  amount */\n      dup4\n        /* \"erc-20.sol\":1453:1466  senderBalance */\n      dup2\n        /* \"erc-20.sol\":1453:1475  senderBalance - amount */\n      tag_94\n      swap2\n      swap1\n      tag_71\n      jump\t// in\n    tag_94:\n        /* \"erc-20.sol\":1423:1442  _balanceOfAddresses */\n      0x03\n        /* \"erc-20.sol\":1423:1450  _balanceOfAddresses[sender] */\n      0x00\n        /* \"erc-20.sol\":1443:1449  sender */\n      dup5\n        /* \"erc-20.sol\":1423:1450  _balanceOfAddresses[sender] */\n      0xffffffffffffffffffffffffffffffffffffffff\n      and\n      0xffffffffffffffffffffffffffffffffffffffff\n      and\n      dup2\n      mstore\n      0x20\n      add\n      swap1\n      dup2\n      mstore\n      0x20\n      add\n      0x00\n      keccak256\n        /* \"erc-20.sol\":1423:1475  _balanceOfAddresses[sender] = senderBalance - amount */\n      dup2\n      swap1\n      sstore\n      pop\n        /* \"erc-20.sol\":1551:1557  amount */\n      dup4\n        /* \"erc-20.sol\":1518:1537  _balanceOfAddresses */\n      0x03\n        /* \"erc-20.sol\":1518:1548  _balanceOfAddresses[recipient] */\n      0x00\n        /* \"erc-20.sol\":1538:1547  recipient */\n      dup8\n        /* \"erc-20.sol\":1518:1548  _balanceOfAddresses[recipient] */\n      0xffffffffffffffffffffffffffffffffffffffff\n      and\n      0xffffffffffffffffffffffffffffffffffffffff\n      and\n      dup2\n      mstore\n      0x20\n      add\n      swap1\n      dup2\n      mstore\n      0x20\n      add\n      0x00\n      keccak256\n      sload\n        /* \"erc-20.sol\":1518:1557  _balanceOfAddresses[recipient] + amount */\n      tag_95\n      swap2\n      swap1\n      tag_74\n      jump\t// in\n    tag_95:\n        /* \"erc-20.sol\":1485:1504  _balanceOfAddresses */\n      0x03\n        /* \"erc-20.sol\":1485:1515  _balanceOfAddresses[recipient] */\n      0x00\n        /* \"erc-20.sol\":1505:1514  recipient */\n      dup8\n        /* \"erc-20.sol\":1485:1515  _balanceOfAddresses[recipient] */\n      0xffffffffffffffffffffffffffffffffffffffff\n      and\n      0xffffffffffffffffffffffffffffffffffffffff\n      and\n      dup2\n      mstore\n      0x20\n      add\n      swap1\n      dup2\n      mstore\n      0x20\n      add\n      0x00\n      keccak256\n        /* \"erc-20.sol\":1485:1557  _balanceOfAddresses[recipient] = _balanceOfAddresses[recipient] + amount */\n      dup2\n      swap1\n      sstore\n      pop\n        /* \"erc-20.sol\":1590:1599  recipient */\n      dup5\n        /* \"erc-20.sol\":1573:1608  Transfer(sender, recipient, amount) */\n      0xffffffffffffffffffffffffffffffffffffffff\n      and\n        /* \"erc-20.sol\":1582:1588  sender */\n      dup3\n        /* \"erc-20.sol\":1573:1608  Transfer(sender, recipient, amount) */\n      0xffffffffffffffffffffffffffffffffffffffff\n      and\n      0xddf252ad1be2c89b69c2b068fc378daa952ba7f163c4a11628f55a4df523b3ef\n        /* \"erc-20.sol\":1601:1607  amount */\n      dup7\n        /* \"erc-20.sol\":1573:1608  Transfer(sender, recipient, amount) */\n      mload(0x40)\n      tag_96\n      swap2\n      swap1\n      tag_22\n      jump\t// in\n    tag_96:\n      mload(0x40)\n      dup1\n      swap2\n      sub\n      swap1\n      log3\n        /* \"erc-20.sol\":1626:1630  true */\n      0x01\n        /* \"erc-20.sol\":1619:1630  return true */\n      swap3\n      pop\n      pop\n      pop\n        /* \"erc-20.sol\":800:1637  function transfer(address recipient, uint amount) external returns (bool) {... */\n      swap3\n      swap2\n      pop\n      pop\n      jump\t// out\n        /* \"erc-20.sol\":2794:2929  function allowance(address owner, address recipient) external view returns (uint) {... */\n    tag_51:\n        /* \"erc-20.sol\":2870:2874  uint */\n      0x00\n        /* \"erc-20.sol\":2893:2904  _allowances */\n      0x04\n        /* \"erc-20.sol\":2893:2911  _allowances[owner] */\n      0x00\n        /* \"erc-20.sol\":2905:2910  owner */\n      dup5\n        /* \"erc-20.sol\":2893:2911  _allowances[owner] */\n      0xffffffffffffffffffffffffffffffffffffffff\n      and\n      0xffffffffffffffffffffffffffffffffffffffff\n      and\n      dup2\n      mstore\n      0x20\n      add\n      swap1\n      dup2\n      mstore\n      0x20\n      add\n      0x00\n      keccak256\n        /* \"erc-20.sol\":2893:2922  _allowances[owner][recipient] */\n      0x00\n        /* \"erc-20.sol\":2912:2921  recipient */\n      dup4\n        /* \"erc-20.sol\":2893:2922  _allowances[owner][recipient] */\n      0xffffffffffffffffffffffffffffffffffffffff\n      and\n      0xffffffffffffffffffffffffffffffffffffffff\n      and\n      dup2\n      mstore\n      0x20\n      add\n      swap1\n      dup2\n      mstore\n      0x20\n      add\n      0x00\n      keccak256\n      sload\n        /* \"erc-20.sol\":2886:2922  return _allowances[owner][recipient] */\n      swap1\n      pop\n        /* \"erc-20.sol\":2794:2929  function allowance(address owner, address recipient) external view returns (uint) {... */\n      swap3\n      swap2\n      pop\n      pop\n      jump\t// out\n        /* \"#utility.yul\":88:205   */\n    tag_99:\n        /* \"#utility.yul\":197:198   */\n      0x00\n        /* \"#utility.yul\":194:195   */\n      dup1\n        /* \"#utility.yul\":187:199   */\n      revert\n        /* \"#utility.yul\":334:460   */\n    tag_101:\n        /* \"#utility.yul\":371:378   */\n      0x00\n        /* \"#utility.yul\":411:453   */\n      0xffffffffffffffffffffffffffffffffffffffff\n        /* \"#utility.yul\":404:409   */\n      dup3\n        /* \"#utility.yul\":400:454   */\n      and\n        /* \"#utility.yul\":389:454   */\n      swap1\n      pop\n        /* \"#utility.yul\":334:460   */\n      swap2\n      swap1\n      pop\n      jump\t// out\n        /* \"#utility.yul\":466:562   */\n    tag_102:\n        /* \"#utility.yul\":503:510   */\n      0x00\n        /* \"#utility.yul\":532:556   */\n      tag_128\n        /* \"#utility.yul\":550:555   */\n      dup3\n        /* \"#utility.yul\":532:556   */\n      tag_101\n      jump\t// in\n    tag_128:\n        /* \"#utility.yul\":521:556   */\n      swap1\n      pop\n        /* \"#utility.yul\":466:562   */\n      swap2\n      swap1\n      pop\n      jump\t// out\n        /* \"#utility.yul\":568:690   */\n    tag_103:\n        /* \"#utility.yul\":641:665   */\n      tag_130\n        /* \"#utility.yul\":659:664   */\n      dup2\n        /* \"#utility.yul\":641:665   */\n      tag_102\n      jump\t// in\n    tag_130:\n        /* \"#utility.yul\":634:639   */\n      dup2\n        /* \"#utility.yul\":631:666   */\n      eq\n        /* \"#utility.yul\":621:684   */\n      tag_131\n      jumpi\n        /* \"#utility.yul\":680:681   */\n      0x00\n        /* \"#utility.yul\":677:678   */\n      dup1\n        /* \"#utility.yul\":670:682   */\n      revert\n        /* \"#utility.yul\":621:684   */\n    tag_131:\n        /* \"#utility.yul\":568:690   */\n      pop\n      jump\t// out\n        /* \"#utility.yul\":696:835   */\n    tag_104:\n        /* \"#utility.yul\":742:747   */\n      0x00\n        /* \"#utility.yul\":780:786   */\n      dup2\n        /* \"#utility.yul\":767:787   */\n      calldataload\n        /* \"#utility.yul\":758:787   */\n      swap1\n      pop\n        /* \"#utility.yul\":796:829   */\n      tag_133\n        /* \"#utility.yul\":823:828   */\n      dup2\n        /* \"#utility.yul\":796:829   */\n      tag_103\n      jump\t// in\n    tag_133:\n        /* \"#utility.yul\":696:835   */\n      swap3\n      swap2\n      pop\n      pop\n      jump\t// out\n        /* \"#utility.yul\":841:918   */\n    tag_105:\n        /* \"#utility.yul\":878:885   */\n      0x00\n        /* \"#utility.yul\":907:912   */\n      dup2\n        /* \"#utility.yul\":896:912   */\n      swap1\n      pop\n        /* \"#utility.yul\":841:918   */\n      swap2\n      swap1\n      pop\n      jump\t// out\n        /* \"#utility.yul\":924:1046   */\n    tag_106:\n        /* \"#utility.yul\":997:1021   */\n      tag_136\n        /* \"#utility.yul\":1015:1020   */\n      dup2\n        /* \"#utility.yul\":997:1021   */\n      tag_105\n      jump\t// in\n    tag_136:\n        /* \"#utility.yul\":990:995   */\n      dup2\n        /* \"#utility.yul\":987:1022   */\n      eq\n        /* \"#utility.yul\":977:1040   */\n      tag_137\n      jumpi\n        /* \"#utility.yul\":1036:1037   */\n      0x00\n        /* \"#utility.yul\":1033:1034   */\n      dup1\n        /* \"#utility.yul\":1026:1038   */\n      revert\n        /* \"#utility.yul\":977:1040   */\n    tag_137:\n        /* \"#utility.yul\":924:1046   */\n      pop\n      jump\t// out\n        /* \"#utility.yul\":1052:1191   */\n    tag_107:\n        /* \"#utility.yul\":1098:1103   */\n      0x00\n        /* \"#utility.yul\":1136:1142   */\n      dup2\n        /* \"#utility.yul\":1123:1143   */\n      calldataload\n        /* \"#utility.yul\":1114:1143   */\n      swap1\n      pop\n        /* \"#utility.yul\":1152:1185   */\n      tag_139\n        /* \"#utility.yul\":1179:1184   */\n      dup2\n        /* \"#utility.yul\":1152:1185   */\n      tag_106\n      jump\t// in\n    tag_139:\n        /* \"#utility.yul\":1052:1191   */\n      swap3\n      swap2\n      pop\n      pop\n      jump\t// out\n        /* \"#utility.yul\":1197:1671   */\n    tag_15:\n        /* \"#utility.yul\":1265:1271   */\n      0x00\n        /* \"#utility.yul\":1273:1279   */\n      dup1\n        /* \"#utility.yul\":1322:1324   */\n      0x40\n        /* \"#utility.yul\":1310:1319   */\n      dup4\n        /* \"#utility.yul\":1301:1308   */\n      dup6\n        /* \"#utility.yul\":1297:1320   */\n      sub\n        /* \"#utility.yul\":1293:1325   */\n      slt\n        /* \"#utility.yul\":1290:1409   */\n      iszero\n      tag_141\n      jumpi\n        /* \"#utility.yul\":1328:1407   */\n      tag_142\n      tag_99\n      jump\t// in\n    tag_142:\n        /* \"#utility.yul\":1290:1409   */\n    tag_141:\n        /* \"#utility.yul\":1448:1449   */\n      0x00\n        /* \"#utility.yul\":1473:1526   */\n      tag_143\n        /* \"#utility.yul\":1518:1525   */\n      dup6\n        /* \"#utility.yul\":1509:1515   */\n      dup3\n        /* \"#utility.yul\":1498:1507   */\n      dup7\n        /* \"#utility.yul\":1494:1516   */\n      add\n        /* \"#utility.yul\":1473:1526   */\n      tag_104\n      jump\t// in\n    tag_143:\n        /* \"#utility.yul\":1463:1526   */\n      swap3\n      pop\n        /* \"#utility.yul\":1419:1536   */\n      pop\n        /* \"#utility.yul\":1575:1577   */\n      0x20\n        /* \"#utility.yul\":1601:1654   */\n      tag_144\n        /* \"#utility.yul\":1646:1653   */\n      dup6\n        /* \"#utility.yul\":1637:1643   */\n      dup3\n        /* \"#utility.yul\":1626:1635   */\n      dup7\n        /* \"#utility.yul\":1622:1644   */\n      add\n        /* \"#utility.yul\":1601:1654   */\n      tag_107\n      jump\t// in\n    tag_144:\n        /* \"#utility.yul\":1591:1654   */\n      swap2\n      pop\n        /* \"#utility.yul\":1546:1664   */\n      pop\n        /* \"#utility.yul\":1197:1671   */\n      swap3\n      pop\n      swap3\n      swap1\n      pop\n      jump\t// out\n        /* \"#utility.yul\":1677:1767   */\n    tag_108:\n        /* \"#utility.yul\":1711:1718   */\n      0x00\n        /* \"#utility.yul\":1754:1759   */\n      dup2\n        /* \"#utility.yul\":1747:1760   */\n      iszero\n        /* \"#utility.yul\":1740:1761   */\n      iszero\n        /* \"#utility.yul\":1729:1761   */\n      swap1\n      pop\n        /* \"#utility.yul\":1677:1767   */\n      swap2\n      swap1\n      pop\n      jump\t// out\n        /* \"#utility.yul\":1773:1882   */\n    tag_109:\n        /* \"#utility.yul\":1854:1875   */\n      tag_147\n        /* \"#utility.yul\":1869:1874   */\n      dup2\n        /* \"#utility.yul\":1854:1875   */\n      tag_108\n      jump\t// in\n    tag_147:\n        /* \"#utility.yul\":1849:1852   */\n      dup3\n        /* \"#utility.yul\":1842:1876   */\n      mstore\n        /* \"#utility.yul\":1773:1882   */\n      pop\n      pop\n      jump\t// out\n        /* \"#utility.yul\":1888:2098   */\n    tag_18:\n        /* \"#utility.yul\":1975:1979   */\n      0x00\n        /* \"#utility.yul\":2013:2015   */\n      0x20\n        /* \"#utility.yul\":2002:2011   */\n      dup3\n        /* \"#utility.yul\":1998:2016   */\n      add\n        /* \"#utility.yul\":1990:2016   */\n      swap1\n      pop\n        /* \"#utility.yul\":2026:2091   */\n      tag_149\n        /* \"#utility.yul\":2088:2089   */\n      0x00\n        /* \"#utility.yul\":2077:2086   */\n      dup4\n        /* \"#utility.yul\":2073:2090   */\n      add\n        /* \"#utility.yul\":2064:2070   */\n      dup5\n        /* \"#utility.yul\":2026:2091   */\n      tag_109\n      jump\t// in\n    tag_149:\n        /* \"#utility.yul\":1888:2098   */\n      swap3\n      swap2\n      pop\n      pop\n      jump\t// out\n        /* \"#utility.yul\":2104:2222   */\n    tag_110:\n        /* \"#utility.yul\":2191:2215   */\n      tag_151\n        /* \"#utility.yul\":2209:2214   */\n      dup2\n        /* \"#utility.yul\":2191:2215   */\n      tag_105\n      jump\t// in\n    tag_151:\n        /* \"#utility.yul\":2186:2189   */\n      dup3\n        /* \"#utility.yul\":2179:2216   */\n      mstore\n        /* \"#utility.yul\":2104:2222   */\n      pop\n      pop\n      jump\t// out\n        /* \"#utility.yul\":2228:2450   */\n    tag_22:\n        /* \"#utility.yul\":2321:2325   */\n      0x00\n        /* \"#utility.yul\":2359:2361   */\n      0x20\n        /* \"#utility.yul\":2348:2357   */\n      dup3\n        /* \"#utility.yul\":2344:2362   */\n      add\n        /* \"#utility.yul\":2336:2362   */\n      swap1\n      pop\n        /* \"#utility.yul\":2372:2443   */\n      tag_153\n        /* \"#utility.yul\":2440:2441   */\n      0x00\n        /* \"#utility.yul\":2429:2438   */\n      dup4\n        /* \"#utility.yul\":2425:2442   */\n      add\n        /* \"#utility.yul\":2416:2422   */\n      dup5\n        /* \"#utility.yul\":2372:2443   */\n      tag_110\n      jump\t// in\n    tag_153:\n        /* \"#utility.yul\":2228:2450   */\n      swap3\n      swap2\n      pop\n      pop\n      jump\t// out\n        /* \"#utility.yul\":2456:3075   */\n    tag_25:\n        /* \"#utility.yul\":2533:2539   */\n      0x00\n        /* \"#utility.yul\":2541:2547   */\n      dup1\n        /* \"#utility.yul\":2549:2555   */\n      0x00\n        /* \"#utility.yul\":2598:2600   */\n      0x60\n        /* \"#utility.yul\":2586:2595   */\n      dup5\n        /* \"#utility.yul\":2577:2584   */\n      dup7\n        /* \"#utility.yul\":2573:2596   */\n      sub\n        /* \"#utility.yul\":2569:2601   */\n      slt\n        /* \"#utility.yul\":2566:2685   */\n      iszero\n      tag_155\n      jumpi\n        /* \"#utility.yul\":2604:2683   */\n      tag_156\n      tag_99\n      jump\t// in\n    tag_156:\n        /* \"#utility.yul\":2566:2685   */\n    tag_155:\n        /* \"#utility.yul\":2724:2725   */\n      0x00\n        /* \"#utility.yul\":2749:2802   */\n      tag_157\n        /* \"#utility.yul\":2794:2801   */\n      dup7\n        /* \"#utility.yul\":2785:2791   */\n      dup3\n        /* \"#utility.yul\":2774:2783   */\n      dup8\n        /* \"#utility.yul\":2770:2792   */\n      add\n        /* \"#utility.yul\":2749:2802   */\n      tag_104\n      jump\t// in\n    tag_157:\n        /* \"#utility.yul\":2739:2802   */\n      swap4\n      pop\n        /* \"#utility.yul\":2695:2812   */\n      pop\n        /* \"#utility.yul\":2851:2853   */\n      0x20\n        /* \"#utility.yul\":2877:2930   */\n      tag_158\n        /* \"#utility.yul\":2922:2929   */\n      dup7\n        /* \"#utility.yul\":2913:2919   */\n      dup3\n        /* \"#utility.yul\":2902:2911   */\n      dup8\n        /* \"#utility.yul\":2898:2920   */\n      add\n        /* \"#utility.yul\":2877:2930   */\n      tag_104\n      jump\t// in\n    tag_158:\n        /* \"#utility.yul\":2867:2930   */\n      swap3\n      pop\n        /* \"#utility.yul\":2822:2940   */\n      pop\n        /* \"#utility.yul\":2979:2981   */\n      0x40\n        /* \"#utility.yul\":3005:3058   */\n      tag_159\n        /* \"#utility.yul\":3050:3057   */\n      dup7\n        /* \"#utility.yul\":3041:3047   */\n      dup3\n        /* \"#utility.yul\":3030:3039   */\n      dup8\n        /* \"#utility.yul\":3026:3048   */\n      add\n        /* \"#utility.yul\":3005:3058   */\n      tag_107\n      jump\t// in\n    tag_159:\n        /* \"#utility.yul\":2995:3058   */\n      swap2\n      pop\n        /* \"#utility.yul\":2950:3068   */\n      pop\n        /* \"#utility.yul\":2456:3075   */\n      swap3\n      pop\n      swap3\n      pop\n      swap3\n      jump\t// out\n        /* \"#utility.yul\":3081:3410   */\n    tag_33:\n        /* \"#utility.yul\":3140:3146   */\n      0x00\n        /* \"#utility.yul\":3189:3191   */\n      0x20\n        /* \"#utility.yul\":3177:3186   */\n      dup3\n        /* \"#utility.yul\":3168:3175   */\n      dup5\n        /* \"#utility.yul\":3164:3187   */\n      sub\n        /* \"#utility.yul\":3160:3192   */\n      slt\n        /* \"#utility.yul\":3157:3276   */\n      iszero\n      tag_161\n      jumpi\n        /* \"#utility.yul\":3195:3274   */\n      tag_162\n      tag_99\n      jump\t// in\n    tag_162:\n        /* \"#utility.yul\":3157:3276   */\n    tag_161:\n        /* \"#utility.yul\":3315:3316   */\n      0x00\n        /* \"#utility.yul\":3340:3393   */\n      tag_163\n        /* \"#utility.yul\":3385:3392   */\n      dup5\n        /* \"#utility.yul\":3376:3382   */\n      dup3\n        /* \"#utility.yul\":3365:3374   */\n      dup6\n        /* \"#utility.yul\":3361:3383   */\n      add\n        /* \"#utility.yul\":3340:3393   */\n      tag_107\n      jump\t// in\n    tag_163:\n        /* \"#utility.yul\":3330:3393   */\n      swap2\n      pop\n        /* \"#utility.yul\":3286:3403   */\n      pop\n        /* \"#utility.yul\":3081:3410   */\n      swap3\n      swap2\n      pop\n      pop\n      jump\t// out\n        /* \"#utility.yul\":3416:3534   */\n    tag_111:\n        /* \"#utility.yul\":3503:3527   */\n      tag_165\n        /* \"#utility.yul\":3521:3526   */\n      dup2\n        /* \"#utility.yul\":3503:3527   */\n      tag_102\n      jump\t// in\n    tag_165:\n        /* \"#utility.yul\":3498:3501   */\n      dup3\n        /* \"#utility.yul\":3491:3528   */\n      mstore\n        /* \"#utility.yul\":3416:3534   */\n      pop\n      pop\n      jump\t// out\n        /* \"#utility.yul\":3540:3762   */\n    tag_38:\n        /* \"#utility.yul\":3633:3637   */\n      0x00\n        /* \"#utility.yul\":3671:3673   */\n      0x20\n        /* \"#utility.yul\":3660:3669   */\n      dup3\n        /* \"#utility.yul\":3656:3674   */\n      add\n        /* \"#utility.yul\":3648:3674   */\n      swap1\n      pop\n        /* \"#utility.yul\":3684:3755   */\n      tag_167\n        /* \"#utility.yul\":3752:3753   */\n      0x00\n        /* \"#utility.yul\":3741:3750   */\n      dup4\n        /* \"#utility.yul\":3737:3754   */\n      add\n        /* \"#utility.yul\":3728:3734   */\n      dup5\n        /* \"#utility.yul\":3684:3755   */\n      tag_111\n      jump\t// in\n    tag_167:\n        /* \"#utility.yul\":3540:3762   */\n      swap3\n      swap2\n      pop\n      pop\n      jump\t// out\n        /* \"#utility.yul\":3768:4097   */\n    tag_41:\n        /* \"#utility.yul\":3827:3833   */\n      0x00\n        /* \"#utility.yul\":3876:3878   */\n      0x20\n        /* \"#utility.yul\":3864:3873   */\n      dup3\n        /* \"#utility.yul\":3855:3862   */\n      dup5\n        /* \"#utility.yul\":3851:3874   */\n      sub\n        /* \"#utility.yul\":3847:3879   */\n      slt\n        /* \"#utility.yul\":3844:3963   */\n      iszero\n      tag_169\n      jumpi\n        /* \"#utility.yul\":3882:3961   */\n      tag_170\n      tag_99\n      jump\t// in\n    tag_170:\n        /* \"#utility.yul\":3844:3963   */\n    tag_169:\n        /* \"#utility.yul\":4002:4003   */\n      0x00\n        /* \"#utility.yul\":4027:4080   */\n      tag_171\n        /* \"#utility.yul\":4072:4079   */\n      dup5\n        /* \"#utility.yul\":4063:4069   */\n      dup3\n        /* \"#utility.yul\":4052:4061   */\n      dup6\n        /* \"#utility.yul\":4048:4070   */\n      add\n        /* \"#utility.yul\":4027:4080   */\n      tag_104\n      jump\t// in\n    tag_171:\n        /* \"#utility.yul\":4017:4080   */\n      swap2\n      pop\n        /* \"#utility.yul\":3973:4090   */\n      pop\n        /* \"#utility.yul\":3768:4097   */\n      swap3\n      swap2\n      pop\n      pop\n      jump\t// out\n        /* \"#utility.yul\":4103:4577   */\n    tag_50:\n        /* \"#utility.yul\":4171:4177   */\n      0x00\n        /* \"#utility.yul\":4179:4185   */\n      dup1\n        /* \"#utility.yul\":4228:4230   */\n      0x40\n        /* \"#utility.yul\":4216:4225   */\n      dup4\n        /* \"#utility.yul\":4207:4214   */\n      dup6\n        /* \"#utility.yul\":4203:4226   */\n      sub\n        /* \"#utility.yul\":4199:4231   */\n      slt\n        /* \"#utility.yul\":4196:4315   */\n      iszero\n      tag_173\n      jumpi\n        /* \"#utility.yul\":4234:4313   */\n      tag_174\n      tag_99\n      jump\t// in\n    tag_174:\n        /* \"#utility.yul\":4196:4315   */\n    tag_173:\n        /* \"#utility.yul\":4354:4355   */\n      0x00\n        /* \"#utility.yul\":4379:4432   */\n      tag_175\n        /* \"#utility.yul\":4424:4431   */\n      dup6\n        /* \"#utility.yul\":4415:4421   */\n      dup3\n        /* \"#utility.yul\":4404:4413   */\n      dup7\n        /* \"#utility.yul\":4400:4422   */\n      add\n        /* \"#utility.yul\":4379:4432   */\n      tag_104\n      jump\t// in\n    tag_175:\n        /* \"#utility.yul\":4369:4432   */\n      swap3\n      pop\n        /* \"#utility.yul\":4325:4442   */\n      pop\n        /* \"#utility.yul\":4481:4483   */\n      0x20\n        /* \"#utility.yul\":4507:4560   */\n      tag_176\n        /* \"#utility.yul\":4552:4559   */\n      dup6\n        /* \"#utility.yul\":4543:4549   */\n      dup3\n        /* \"#utility.yul\":4532:4541   */\n      dup7\n        /* \"#utility.yul\":4528:4550   */\n      add\n        /* \"#utility.yul\":4507:4560   */\n      tag_104\n      jump\t// in\n    tag_176:\n        /* \"#utility.yul\":4497:4560   */\n      swap2\n      pop\n        /* \"#utility.yul\":4452:4570   */\n      pop\n        /* \"#utility.yul\":4103:4577   */\n      swap3\n      pop\n      swap3\n      swap1\n      pop\n      jump\t// out\n        /* \"#utility.yul\":4583:4752   */\n    tag_112:\n        /* \"#utility.yul\":4667:4678   */\n      0x00\n        /* \"#utility.yul\":4701:4707   */\n      dup3\n        /* \"#utility.yul\":4696:4699   */\n      dup3\n        /* \"#utility.yul\":4689:4708   */\n      mstore\n        /* \"#utility.yul\":4741:4745   */\n      0x20\n        /* \"#utility.yul\":4736:4739   */\n      dup3\n        /* \"#utility.yul\":4732:4746   */\n      add\n        /* \"#utility.yul\":4717:4746   */\n      swap1\n      pop\n        /* \"#utility.yul\":4583:4752   */\n      swap3\n      swap2\n      pop\n      pop\n      jump\t// out\n        /* \"#utility.yul\":4758:4933   */\n    tag_113:\n        /* \"#utility.yul\":4898:4925   */\n      0x73656e6465722061646472657373206d75737420657869737400000000000000\n        /* \"#utility.yul\":4894:4895   */\n      0x00\n        /* \"#utility.yul\":4886:4892   */\n      dup3\n        /* \"#utility.yul\":4882:4896   */\n      add\n        /* \"#utility.yul\":4875:4926   */\n      mstore\n        /* \"#utility.yul\":4758:4933   */\n      pop\n      jump\t// out\n        /* \"#utility.yul\":4939:5305   */\n    tag_114:\n        /* \"#utility.yul\":5081:5084   */\n      0x00\n        /* \"#utility.yul\":5102:5169   */\n      tag_180\n        /* \"#utility.yul\":5166:5168   */\n      0x19\n        /* \"#utility.yul\":5161:5164   */\n      dup4\n        /* \"#utility.yul\":5102:5169   */\n      tag_112\n      jump\t// in\n    tag_180:\n        /* \"#utility.yul\":5095:5169   */\n      swap2\n      pop\n        /* \"#utility.yul\":5178:5271   */\n      tag_181\n        /* \"#utility.yul\":5267:5270   */\n      dup3\n        /* \"#utility.yul\":5178:5271   */\n      tag_113\n      jump\t// in\n    tag_181:\n        /* \"#utility.yul\":5296:5298   */\n      0x20\n        /* \"#utility.yul\":5291:5294   */\n      dup3\n        /* \"#utility.yul\":5287:5299   */\n      add\n        /* \"#utility.yul\":5280:5299   */\n      swap1\n      pop\n        /* \"#utility.yul\":4939:5305   */\n      swap2\n      swap1\n      pop\n      jump\t// out\n        /* \"#utility.yul\":5311:5730   */\n    tag_60:\n        /* \"#utility.yul\":5477:5481   */\n      0x00\n        /* \"#utility.yul\":5515:5517   */\n      0x20\n        /* \"#utility.yul\":5504:5513   */\n      dup3\n        /* \"#utility.yul\":5500:5518   */\n      add\n        /* \"#utility.yul\":5492:5518   */\n      swap1\n      pop\n        /* \"#utility.yul\":5564:5573   */\n      dup2\n        /* \"#utility.yul\":5558:5562   */\n      dup2\n        /* \"#utility.yul\":5554:5574   */\n      sub\n        /* \"#utility.yul\":5550:5551   */\n      0x00\n        /* \"#utility.yul\":5539:5548   */\n      dup4\n        /* \"#utility.yul\":5535:5552   */\n      add\n        /* \"#utility.yul\":5528:5575   */\n      mstore\n        /* \"#utility.yul\":5592:5723   */\n      tag_183\n        /* \"#utility.yul\":5718:5722   */\n      dup2\n        /* \"#utility.yul\":5592:5723   */\n      tag_114\n      jump\t// in\n    tag_183:\n        /* \"#utility.yul\":5584:5723   */\n      swap1\n      pop\n        /* \"#utility.yul\":5311:5730   */\n      swap2\n      swap1\n      pop\n      jump\t// out\n        /* \"#utility.yul\":5736:5914   */\n    tag_115:\n        /* \"#utility.yul\":5876:5906   */\n      0x726563656970656e742061646472657373206d75737420657869737400000000\n        /* \"#utility.yul\":5872:5873   */\n      0x00\n        /* \"#utility.yul\":5864:5870   */\n      dup3\n        /* \"#utility.yul\":5860:5874   */\n      add\n        /* \"#utility.yul\":5853:5907   */\n      mstore\n        /* \"#utility.yul\":5736:5914   */\n      pop\n      jump\t// out\n        /* \"#utility.yul\":5920:6286   */\n    tag_116:\n        /* \"#utility.yul\":6062:6065   */\n      0x00\n        /* \"#utility.yul\":6083:6150   */\n      tag_186\n        /* \"#utility.yul\":6147:6149   */\n      0x1c\n        /* \"#utility.yul\":6142:6145   */\n      dup4\n        /* \"#utility.yul\":6083:6150   */\n      tag_112\n      jump\t// in\n    tag_186:\n        /* \"#utility.yul\":6076:6150   */\n      swap2\n      pop\n        /* \"#utility.yul\":6159:6252   */\n      tag_187\n        /* \"#utility.yul\":6248:6251   */\n      dup3\n        /* \"#utility.yul\":6159:6252   */\n      tag_115\n      jump\t// in\n    tag_187:\n        /* \"#utility.yul\":6277:6279   */\n      0x20\n        /* \"#utility.yul\":6272:6275   */\n      dup3\n        /* \"#utility.yul\":6268:6280   */\n      add\n        /* \"#utility.yul\":6261:6280   */\n      swap1\n      pop\n        /* \"#utility.yul\":5920:6286   */\n      swap2\n      swap1\n      pop\n      jump\t// out\n        /* \"#utility.yul\":6292:6711   */\n    tag_63:\n        /* \"#utility.yul\":6458:6462   */\n      0x00\n        /* \"#utility.yul\":6496:6498   */\n      0x20\n        /* \"#utility.yul\":6485:6494   */\n      dup3\n        /* \"#utility.yul\":6481:6499   */\n      add\n        /* \"#utility.yul\":6473:6499   */\n      swap1\n      pop\n        /* \"#utility.yul\":6545:6554   */\n      dup2\n        /* \"#utility.yul\":6539:6543   */\n      dup2\n        /* \"#utility.yul\":6535:6555   */\n      sub\n        /* \"#utility.yul\":6531:6532   */\n      0x00\n        /* \"#utility.yul\":6520:6529   */\n      dup4\n        /* \"#utility.yul\":6516:6533   */\n      add\n        /* \"#utility.yul\":6509:6556   */\n      mstore\n        /* \"#utility.yul\":6573:6704   */\n      tag_189\n        /* \"#utility.yul\":6699:6703   */\n      dup2\n        /* \"#utility.yul\":6573:6704   */\n      tag_116\n      jump\t// in\n    tag_189:\n        /* \"#utility.yul\":6565:6704   */\n      swap1\n      pop\n        /* \"#utility.yul\":6292:6711   */\n      swap2\n      swap1\n      pop\n      jump\t// out\n        /* \"#utility.yul\":6717:7007   */\n    tag_117:\n        /* \"#utility.yul\":6857:6891   */\n      0x6f776e65722062616c616e63652073686f756c6420626520657175616c206f72\n        /* \"#utility.yul\":6853:6854   */\n      0x00\n        /* \"#utility.yul\":6845:6851   */\n      dup3\n        /* \"#utility.yul\":6841:6855   */\n      add\n        /* \"#utility.yul\":6834:6892   */\n      mstore\n        /* \"#utility.yul\":6926:6960   */\n      0x206d6f7265207468656e2074686520616d6f756e7420746f207472616e736665\n        /* \"#utility.yul\":6921:6923   */\n      0x20\n        /* \"#utility.yul\":6913:6919   */\n      dup3\n        /* \"#utility.yul\":6909:6924   */\n      add\n        /* \"#utility.yul\":6902:6961   */\n      mstore\n        /* \"#utility.yul\":6995:6999   */\n      0x722e000000000000000000000000000000000000000000000000000000000000\n        /* \"#utility.yul\":6990:6992   */\n      0x40\n        /* \"#utility.yul\":6982:6988   */\n      dup3\n        /* \"#utility.yul\":6978:6993   */\n      add\n        /* \"#utility.yul\":6971:7000   */\n      mstore\n        /* \"#utility.yul\":6717:7007   */\n      pop\n      jump\t// out\n        /* \"#utility.yul\":7013:7379   */\n    tag_118:\n        /* \"#utility.yul\":7155:7158   */\n      0x00\n        /* \"#utility.yul\":7176:7243   */\n      tag_192\n        /* \"#utility.yul\":7240:7242   */\n      0x42\n        /* \"#utility.yul\":7235:7238   */\n      dup4\n        /* \"#utility.yul\":7176:7243   */\n      tag_112\n      jump\t// in\n    tag_192:\n        /* \"#utility.yul\":7169:7243   */\n      swap2\n      pop\n        /* \"#utility.yul\":7252:7345   */\n      tag_193\n        /* \"#utility.yul\":7341:7344   */\n      dup3\n        /* \"#utility.yul\":7252:7345   */\n      tag_117\n      jump\t// in\n    tag_193:\n        /* \"#utility.yul\":7370:7372   */\n      0x60\n        /* \"#utility.yul\":7365:7368   */\n      dup3\n        /* \"#utility.yul\":7361:7373   */\n      add\n        /* \"#utility.yul\":7354:7373   */\n      swap1\n      pop\n        /* \"#utility.yul\":7013:7379   */\n      swap2\n      swap1\n      pop\n      jump\t// out\n        /* \"#utility.yul\":7385:7804   */\n    tag_66:\n        /* \"#utility.yul\":7551:7555   */\n      0x00\n        /* \"#utility.yul\":7589:7591   */\n      0x20\n        /* \"#utility.yul\":7578:7587   */\n      dup3\n        /* \"#utility.yul\":7574:7592   */\n      add\n        /* \"#utility.yul\":7566:7592   */\n      swap1\n      pop\n        /* \"#utility.yul\":7638:7647   */\n      dup2\n        /* \"#utility.yul\":7632:7636   */\n      dup2\n        /* \"#utility.yul\":7628:7648   */\n      sub\n        /* \"#utility.yul\":7624:7625   */\n      0x00\n        /* \"#utility.yul\":7613:7622   */\n      dup4\n        /* \"#utility.yul\":7609:7626   */\n      add\n        /* \"#utility.yul\":7602:7649   */\n      mstore\n        /* \"#utility.yul\":7666:7797   */\n      tag_195\n        /* \"#utility.yul\":7792:7796   */\n      dup2\n        /* \"#utility.yul\":7666:7797   */\n      tag_118\n      jump\t// in\n    tag_195:\n        /* \"#utility.yul\":7658:7797   */\n      swap1\n      pop\n        /* \"#utility.yul\":7385:7804   */\n      swap2\n      swap1\n      pop\n      jump\t// out\n        /* \"#utility.yul\":7810:8061   */\n    tag_119:\n        /* \"#utility.yul\":7950:7984   */\n      0x616c6c6f77656420746f6b656e2073686f756c64206265206d6f726520746865\n        /* \"#utility.yul\":7946:7947   */\n      0x00\n        /* \"#utility.yul\":7938:7944   */\n      dup3\n        /* \"#utility.yul\":7934:7948   */\n      add\n        /* \"#utility.yul\":7927:7985   */\n      mstore\n        /* \"#utility.yul\":8019:8053   */\n      0x6e2074686520616d6f756e742077652077616e7420746f207472616e73666572\n        /* \"#utility.yul\":8014:8016   */\n      0x20\n        /* \"#utility.yul\":8006:8012   */\n      dup3\n        /* \"#utility.yul\":8002:8017   */\n      add\n        /* \"#utility.yul\":7995:8054   */\n      mstore\n        /* \"#utility.yul\":7810:8061   */\n      pop\n      jump\t// out\n        /* \"#utility.yul\":8067:8433   */\n    tag_120:\n        /* \"#utility.yul\":8209:8212   */\n      0x00\n        /* \"#utility.yul\":8230:8297   */\n      tag_198\n        /* \"#utility.yul\":8294:8296   */\n      0x40\n        /* \"#utility.yul\":8289:8292   */\n      dup4\n        /* \"#utility.yul\":8230:8297   */\n      tag_112\n      jump\t// in\n    tag_198:\n        /* \"#utility.yul\":8223:8297   */\n      swap2\n      pop\n        /* \"#utility.yul\":8306:8399   */\n      tag_199\n        /* \"#utility.yul\":8395:8398   */\n      dup3\n        /* \"#utility.yul\":8306:8399   */\n      tag_119\n      jump\t// in\n    tag_199:\n        /* \"#utility.yul\":8424:8426   */\n      0x40\n        /* \"#utility.yul\":8419:8422   */\n      dup3\n        /* \"#utility.yul\":8415:8427   */\n      add\n        /* \"#utility.yul\":8408:8427   */\n      swap1\n      pop\n        /* \"#utility.yul\":8067:8433   */\n      swap2\n      swap1\n      pop\n      jump\t// out\n        /* \"#utility.yul\":8439:8858   */\n    tag_69:\n        /* \"#utility.yul\":8605:8609   */\n      0x00\n        /* \"#utility.yul\":8643:8645   */\n      0x20\n        /* \"#utility.yul\":8632:8641   */\n      dup3\n        /* \"#utility.yul\":8628:8646   */\n      add\n        /* \"#utility.yul\":8620:8646   */\n      swap1\n      pop\n        /* \"#utility.yul\":8692:8701   */\n      dup2\n        /* \"#utility.yul\":8686:8690   */\n      dup2\n        /* \"#utility.yul\":8682:8702   */\n      sub\n        /* \"#utility.yul\":8678:8679   */\n      0x00\n        /* \"#utility.yul\":8667:8676   */\n      dup4\n        /* \"#utility.yul\":8663:8680   */\n      add\n        /* \"#utility.yul\":8656:8703   */\n      mstore\n        /* \"#utility.yul\":8720:8851   */\n      tag_201\n        /* \"#utility.yul\":8846:8850   */\n      dup2\n        /* \"#utility.yul\":8720:8851   */\n      tag_120\n      jump\t// in\n    tag_201:\n        /* \"#utility.yul\":8712:8851   */\n      swap1\n      pop\n        /* \"#utility.yul\":8439:8858   */\n      swap2\n      swap1\n      pop\n      jump\t// out\n        /* \"#utility.yul\":8864:9044   */\n    tag_121:\n        /* \"#utility.yul\":8912:8989   */\n      0x4e487b7100000000000000000000000000000000000000000000000000000000\n        /* \"#utility.yul\":8909:8910   */\n      0x00\n        /* \"#utility.yul\":8902:8990   */\n      mstore\n        /* \"#utility.yul\":9009:9013   */\n      0x11\n        /* \"#utility.yul\":9006:9007   */\n      0x04\n        /* \"#utility.yul\":8999:9014   */\n      mstore\n        /* \"#utility.yul\":9033:9037   */\n      0x24\n        /* \"#utility.yul\":9030:9031   */\n      0x00\n        /* \"#utility.yul\":9023:9038   */\n      revert\n        /* \"#utility.yul\":9050:9244   */\n    tag_71:\n        /* \"#utility.yul\":9090:9094   */\n      0x00\n        /* \"#utility.yul\":9110:9130   */\n      tag_204\n        /* \"#utility.yul\":9128:9129   */\n      dup3\n        /* \"#utility.yul\":9110:9130   */\n      tag_105\n      jump\t// in\n    tag_204:\n        /* \"#utility.yul\":9105:9130   */\n      swap2\n      pop\n        /* \"#utility.yul\":9144:9164   */\n      tag_205\n        /* \"#utility.yul\":9162:9163   */\n      dup4\n        /* \"#utility.yul\":9144:9164   */\n      tag_105\n      jump\t// in\n    tag_205:\n        /* \"#utility.yul\":9139:9164   */\n      swap3\n      pop\n        /* \"#utility.yul\":9188:9189   */\n      dup3\n        /* \"#utility.yul\":9185:9186   */\n      dup3\n        /* \"#utility.yul\":9181:9190   */\n      sub\n        /* \"#utility.yul\":9173:9190   */\n      swap1\n      pop\n        /* \"#utility.yul\":9212:9213   */\n      dup2\n        /* \"#utility.yul\":9206:9210   */\n      dup2\n        /* \"#utility.yul\":9203:9214   */\n      gt\n        /* \"#utility.yul\":9200:9237   */\n      iszero\n      tag_206\n      jumpi\n        /* \"#utility.yul\":9217:9235   */\n      tag_207\n      tag_121\n      jump\t// in\n    tag_207:\n        /* \"#utility.yul\":9200:9237   */\n    tag_206:\n        /* \"#utility.yul\":9050:9244   */\n      swap3\n      swap2\n      pop\n      pop\n      jump\t// out\n        /* \"#utility.yul\":9250:9441   */\n    tag_74:\n        /* \"#utility.yul\":9290:9293   */\n      0x00\n        /* \"#utility.yul\":9309:9329   */\n      tag_209\n        /* \"#utility.yul\":9327:9328   */\n      dup3\n        /* \"#utility.yul\":9309:9329   */\n      tag_105\n      jump\t// in\n    tag_209:\n        /* \"#utility.yul\":9304:9329   */\n      swap2\n      pop\n        /* \"#utility.yul\":9343:9363   */\n      tag_210\n        /* \"#utility.yul\":9361:9362   */\n      dup4\n        /* \"#utility.yul\":9343:9363   */\n      tag_105\n      jump\t// in\n    tag_210:\n        /* \"#utility.yul\":9338:9363   */\n      swap3\n      pop\n        /* \"#utility.yul\":9386:9387   */\n      dup3\n        /* \"#utility.yul\":9383:9384   */\n      dup3\n        /* \"#utility.yul\":9379:9388   */\n      add\n        /* \"#utility.yul\":9372:9388   */\n      swap1\n      pop\n        /* \"#utility.yul\":9407:9410   */\n      dup1\n        /* \"#utility.yul\":9404:9405   */\n      dup3\n        /* \"#utility.yul\":9401:9411   */\n      gt\n        /* \"#utility.yul\":9398:9434   */\n      iszero\n      tag_211\n      jumpi\n        /* \"#utility.yul\":9414:9432   */\n      tag_212\n      tag_121\n      jump\t// in\n    tag_212:\n        /* \"#utility.yul\":9398:9434   */\n    tag_211:\n        /* \"#utility.yul\":9250:9441   */\n      swap3\n      swap2\n      pop\n      pop\n      jump\t// out\n\n    auxdata: 0xa2646970667358221220013b928e3441bc8fd1275dd44c1876895111de43257dbd8094740367d115126f64736f6c63430008120033\n}\n",
				"bytecode": {
					"linkReferences": {},
					"object": "608060405234801561001057600080fd5b50611231806100206000396000f3fe608060405234801561001057600080fd5b50600436106100935760003560e01c806342966c681161006657806342966c68146101325780634fc847911461014e57806370a082311461016c578063a9059cbb1461019c578063dd62ed3e146101cc57610093565b8063095ea7b31461009857806318160ddd146100c857806323b872dd146100e657806340c10f1914610116575b600080fd5b6100b260048036038101906100ad9190610d7a565b6101fc565b6040516100bf9190610dd5565b60405180910390f35b6100d06102fa565b6040516100dd9190610dff565b60405180910390f35b61010060048036038101906100fb9190610e1a565b610303565b60405161010d9190610dd5565b60405180910390f35b610130600480360381019061012b9190610d7a565b6107c3565b005b61014c60048036038101906101479190610e6d565b6108a8565b005b61015661098c565b6040516101639190610ea9565b60405180910390f35b61018660048036038101906101819190610ec4565b610994565b6040516101939190610dff565b60405180910390f35b6101b660048036038101906101b19190610d7a565b6109dd565b6040516101c39190610dd5565b60405180910390f35b6101e660048036038101906101e19190610ef1565b610c5a565b6040516101f39190610dff565b60405180910390f35b60008061020761098c565b905082600460008373ffffffffffffffffffffffffffffffffffffffff1673ffffffffffffffffffffffffffffffffffffffff16815260200190815260200160002060008673ffffffffffffffffffffffffffffffffffffffff1673ffffffffffffffffffffffffffffffffffffffff168152602001908152602001600020819055508373ffffffffffffffffffffffffffffffffffffffff168173ffffffffffffffffffffffffffffffffffffffff167f8c5be1e5ebec7d5bd14f71427d1e84f3dd0314c0f7b2291e5b200ac8c7c3b925856040516102e79190610dff565b60405180910390a3600191505092915050565b60008054905090565b60008073ffffffffffffffffffffffffffffffffffffffff168473ffffffffffffffffffffffffffffffffffffffff1603610373576040517f08c379a000000000000000000000000000000000000000000000000000000000815260040161036a90610f8e565b60405180910390fd5b600073ffffffffffffffffffffffffffffffffffffffff168373ffffffffffffffffffffffffffffffffffffffff16036103e2576040517f08c379a00000000000000000000000000000000000000000000000000000000081526004016103d990610ffa565b60405180910390fd5b6000600360008673ffffffffffffffffffffffffffffffffffffffff1673ffffffffffffffffffffffffffffffffffffffff1681526020019081526020016000205490506000600460008773ffffffffffffffffffffffffffffffffffffffff1673ffffffffffffffffffffffffffffffffffffffff16815260200190815260200160002060003373ffffffffffffffffffffffffffffffffffffffff1673ffffffffffffffffffffffffffffffffffffffff168152602001908152602001600020549050818411156104ea576040517f08c379a00000000000000000000000000000000000000000000000000000000081526004016104e1906110b2565b60405180910390fd5b8084111561052d576040517f08c379a000000000000000000000000000000000000000000000000000000000815260040161052490611144565b60405180910390fd5b83600360008873ffffffffffffffffffffffffffffffffffffffff1673ffffffffffffffffffffffffffffffffffffffff168152602001908152602001600020546105789190611193565b600360008873ffffffffffffffffffffffffffffffffffffffff1673ffffffffffffffffffffffffffffffffffffffff1681526020019081526020016000208190555083600460008873ffffffffffffffffffffffffffffffffffffffff1673ffffffffffffffffffffffffffffffffffffffff16815260200190815260200160002060003373ffffffffffffffffffffffffffffffffffffffff1673ffffffffffffffffffffffffffffffffffffffff168152602001908152602001600020546106439190611193565b600460008873ffffffffffffffffffffffffffffffffffffffff1673ffffffffffffffffffffffffffffffffffffffff16815260200190815260200160002060003373ffffffffffffffffffffffffffffffffffffffff1673ffffffffffffffffffffffffffffffffffffffff1681526020019081526020016000208190555083600360008773ffffffffffffffffffffffffffffffffffffffff1673ffffffffffffffffffffffffffffffffffffffff1681526020019081526020016000205461070e91906111c7565b600360008773ffffffffffffffffffffffffffffffffffffffff1673ffffffffffffffffffffffffffffffffffffffff168152602001908152602001600020819055508473ffffffffffffffffffffffffffffffffffffffff168673ffffffffffffffffffffffffffffffffffffffff167fddf252ad1be2c89b69c2b068fc378daa952ba7f163c4a11628f55a4df523b3ef866040516107ae9190610dff565b60405180910390a36001925050509392505050565b60006107cd61098c565b905081600360008573ffffffffffffffffffffffffffffffffffffffff1673ffffffffffffffffffffffffffffffffffffffff168152602001908152602001600020600082825461081e91906111c7565b925050819055508160008082825461083691906111c7565b925050819055508073ffffffffffffffffffffffffffffffffffffffff16600073ffffffffffffffffffffffffffffffffffffffff167fddf252ad1be2c89b69c2b068fc378daa952ba7f163c4a11628f55a4df523b3ef8460405161089b9190610dff565b60405180910390a3505050565b60006108b261098c565b905081600360008373ffffffffffffffffffffffffffffffffffffffff1673ffffffffffffffffffffffffffffffffffffffff16815260200190815260200160002060008282546109039190611193565b925050819055508160008082825461091b9190611193565b92505081905550600073ffffffffffffffffffffffffffffffffffffffff168173ffffffffffffffffffffffffffffffffffffffff167fddf252ad1be2c89b69c2b068fc378daa952ba7f163c4a11628f55a4df523b3ef846040516109809190610dff565b60405180910390a35050565b600033905090565b6000600360008373ffffffffffffffffffffffffffffffffffffffff1673ffffffffffffffffffffffffffffffffffffffff168152602001908152602001600020549050919050565b6000806109e861098c565b9050600073ffffffffffffffffffffffffffffffffffffffff168173ffffffffffffffffffffffffffffffffffffffff1603610a59576040517f08c379a0000000000000000000000000000000000000000000000000000000008152600401610a5090610f8e565b60405180910390fd5b600073ffffffffffffffffffffffffffffffffffffffff168473ffffffffffffffffffffffffffffffffffffffff1603610ac8576040517f08c379a0000000000000000000000000000000000000000000000000000000008152600401610abf90610ffa565b60405180910390fd5b6000600360008373ffffffffffffffffffffffffffffffffffffffff1673ffffffffffffffffffffffffffffffffffffffff1681526020019081526020016000205490508381610b189190611193565b600360008473ffffffffffffffffffffffffffffffffffffffff1673ffffffffffffffffffffffffffffffffffffffff1681526020019081526020016000208190555083600360008773ffffffffffffffffffffffffffffffffffffffff1673ffffffffffffffffffffffffffffffffffffffff16815260200190815260200160002054610ba691906111c7565b600360008773ffffffffffffffffffffffffffffffffffffffff1673ffffffffffffffffffffffffffffffffffffffff168152602001908152602001600020819055508473ffffffffffffffffffffffffffffffffffffffff168273ffffffffffffffffffffffffffffffffffffffff167fddf252ad1be2c89b69c2b068fc378daa952ba7f163c4a11628f55a4df523b3ef86604051610c469190610dff565b60405180910390a360019250505092915050565b6000600460008473ffffffffffffffffffffffffffffffffffffffff1673ffffffffffffffffffffffffffffffffffffffff16815260200190815260200160002060008373ffffffffffffffffffffffffffffffffffffffff1673ffffffffffffffffffffffffffffffffffffffff16815260200190815260200160002054905092915050565b600080fd5b600073ffffffffffffffffffffffffffffffffffffffff82169050919050565b6000610d1182610ce6565b9050919050565b610d2181610d06565b8114610d2c57600080fd5b50565b600081359050610d3e81610d18565b92915050565b6000819050919050565b610d5781610d44565b8114610d6257600080fd5b50565b600081359050610d7481610d4e565b92915050565b60008060408385031215610d9157610d90610ce1565b5b6000610d9f85828601610d2f565b9250506020610db085828601610d65565b9150509250929050565b60008115159050919050565b610dcf81610dba565b82525050565b6000602082019050610dea6000830184610dc6565b92915050565b610df981610d44565b82525050565b6000602082019050610e146000830184610df0565b92915050565b600080600060608486031215610e3357610e32610ce1565b5b6000610e4186828701610d2f565b9350506020610e5286828701610d2f565b9250506040610e6386828701610d65565b9150509250925092565b600060208284031215610e8357610e82610ce1565b5b6000610e9184828501610d65565b91505092915050565b610ea381610d06565b82525050565b6000602082019050610ebe6000830184610e9a565b92915050565b600060208284031215610eda57610ed9610ce1565b5b6000610ee884828501610d2f565b91505092915050565b60008060408385031215610f0857610f07610ce1565b5b6000610f1685828601610d2f565b9250506020610f2785828601610d2f565b9150509250929050565b600082825260208201905092915050565b7f73656e6465722061646472657373206d75737420657869737400000000000000600082015250565b6000610f78601983610f31565b9150610f8382610f42565b602082019050919050565b60006020820190508181036000830152610fa781610f6b565b9050919050565b7f726563656970656e742061646472657373206d75737420657869737400000000600082015250565b6000610fe4601c83610f31565b9150610fef82610fae565b602082019050919050565b6000602082019050818103600083015261101381610fd7565b9050919050565b7f6f776e65722062616c616e63652073686f756c6420626520657175616c206f7260008201527f206d6f7265207468656e2074686520616d6f756e7420746f207472616e73666560208201527f722e000000000000000000000000000000000000000000000000000000000000604082015250565b600061109c604283610f31565b91506110a78261101a565b606082019050919050565b600060208201905081810360008301526110cb8161108f565b9050919050565b7f616c6c6f77656420746f6b656e2073686f756c64206265206d6f72652074686560008201527f6e2074686520616d6f756e742077652077616e7420746f207472616e73666572602082015250565b600061112e604083610f31565b9150611139826110d2565b604082019050919050565b6000602082019050818103600083015261115d81611121565b9050919050565b7f4e487b7100000000000000000000000000000000000000000000000000000000600052601160045260246000fd5b600061119e82610d44565b91506111a983610d44565b92508282039050818111156111c1576111c0611164565b5b92915050565b60006111d282610d44565b91506111dd83610d44565b92508282019050808211156111f5576111f4611164565b5b9291505056fea2646970667358221220013b928e3441bc8fd1275dd44c1876895111de43257dbd8094740367d115126f64736f6c63430008120033",
					"opcodes": "PUSH1 0x80 PUSH1 0x40 MSTORE CALLVALUE DUP1 ISZERO PUSH2 0x10 JUMPI PUSH1 0x0 DUP1 REVERT JUMPDEST POP PUSH2 0x1231 DUP1 PUSH2 0x20 PUSH1 0x0 CODECOPY PUSH1 0x0 RETURN INVALID PUSH1 0x80 PUSH1 0x40 MSTORE CALLVALUE DUP1 ISZERO PUSH2 0x10 JUMPI PUSH1 0x0 DUP1 REVERT JUMPDEST POP PUSH1 0x4 CALLDATASIZE LT PUSH2 0x93 JUMPI PUSH1 0x0 CALLDATALOAD PUSH1 0xE0 SHR DUP1 PUSH4 0x42966C68 GT PUSH2 0x66 JUMPI DUP1 PUSH4 0x42966C68 EQ PUSH2 0x132 JUMPI DUP1 PUSH4 0x4FC84791 EQ PUSH2 0x14E JUMPI DUP1 PUSH4 0x70A08231 EQ PUSH2 0x16C JUMPI DUP1 PUSH4 0xA9059CBB EQ PUSH2 0x19C JUMPI DUP1 PUSH4 0xDD62ED3E EQ PUSH2 0x1CC JUMPI PUSH2 0x93 JUMP JUMPDEST DUP1 PUSH4 0x95EA7B3 EQ PUSH2 0x98 JUMPI DUP1 PUSH4 0x18160DDD EQ PUSH2 0xC8 JUMPI DUP1 PUSH4 0x23B872DD EQ PUSH2 0xE6 JUMPI DUP1 PUSH4 0x40C10F19 EQ PUSH2 0x116 JUMPI JUMPDEST PUSH1 0x0 DUP1 REVERT JUMPDEST PUSH2 0xB2 PUSH1 0x4 DUP1 CALLDATASIZE SUB DUP2 ADD SWAP1 PUSH2 0xAD SWAP2 SWAP1 PUSH2 0xD7A JUMP JUMPDEST PUSH2 0x1FC JUMP JUMPDEST PUSH1 0x40 MLOAD PUSH2 0xBF SWAP2 SWAP1 PUSH2 0xDD5 JUMP JUMPDEST PUSH1 0x40 MLOAD DUP1 SWAP2 SUB SWAP1 RETURN JUMPDEST PUSH2 0xD0 PUSH2 0x2FA JUMP JUMPDEST PUSH1 0x40 MLOAD PUSH2 0xDD SWAP2 SWAP1 PUSH2 0xDFF JUMP JUMPDEST PUSH1 0x40 MLOAD DUP1 SWAP2 SUB SWAP1 RETURN JUMPDEST PUSH2 0x100 PUSH1 0x4 DUP1 CALLDATASIZE SUB DUP2 ADD SWAP1 PUSH2 0xFB SWAP2 SWAP1 PUSH2 0xE1A JUMP JUMPDEST PUSH2 0x303 JUMP JUMPDEST PUSH1 0x40 MLOAD PUSH2 0x10D SWAP2 SWAP1 PUSH2 0xDD5 JUMP JUMPDEST PUSH1 0x40 MLOAD DUP1 SWAP2 SUB SWAP1 RETURN JUMPDEST PUSH2 0x130 PUSH1 0x4 DUP1 CALLDATASIZE SUB DUP2 ADD SWAP1 PUSH2 0x12B SWAP2 SWAP1 PUSH2 0xD7A JUMP JUMPDEST PUSH2 0x7C3 JUMP JUMPDEST STOP JUMPDEST PUSH2 0x14C PUSH1 0x4 DUP1 CALLDATASIZE SUB DUP2 ADD SWAP1 PUSH2 0x147 SWAP2 SWAP1 PUSH2 0xE6D JUMP JUMPDEST PUSH2 0x8A8 JUMP JUMPDEST STOP JUMPDEST PUSH2 0x156 PUSH2 0x98C JUMP JUMPDEST PUSH1 0x40 MLOAD PUSH2 0x163 SWAP2 SWAP1 PUSH2 0xEA9 JUMP JUMPDEST PUSH1 0x40 MLOAD DUP1 SWAP2 SUB SWAP1 RETURN JUMPDEST PUSH2 0x186 PUSH1 0x4 DUP1 CALLDATASIZE SUB DUP2 ADD SWAP1 PUSH2 0x181 SWAP2 SWAP1 PUSH2 0xEC4 JUMP JUMPDEST PUSH2 0x994 JUMP JUMPDEST PUSH1 0x40 MLOAD PUSH2 0x193 SWAP2 SWAP1 PUSH2 0xDFF JUMP JUMPDEST PUSH1 0x40 MLOAD DUP1 SWAP2 SUB SWAP1 RETURN JUMPDEST PUSH2 0x1B6 PUSH1 0x4 DUP1 CALLDATASIZE SUB DUP2 ADD SWAP1 PUSH2 0x1B1 SWAP2 SWAP1 PUSH2 0xD7A JUMP JUMPDEST PUSH2 0x9DD JUMP JUMPDEST PUSH1 0x40 MLOAD PUSH2 0x1C3 SWAP2 SWAP1 PUSH2 0xDD5 JUMP JUMPDEST PUSH1 0x40 MLOAD DUP1 SWAP2 SUB SWAP1 RETURN JUMPDEST PUSH2 0x1E6 PUSH1 0x4 DUP1 CALLDATASIZE SUB DUP2 ADD SWAP1 PUSH2 0x1E1 SWAP2 SWAP1 PUSH2 0xEF1 JUMP JUMPDEST PUSH2 0xC5A JUMP JUMPDEST PUSH1 0x40 MLOAD PUSH2 0x1F3 SWAP2 SWAP1 PUSH2 0xDFF JUMP JUMPDEST PUSH1 0x40 MLOAD DUP1 SWAP2 SUB SWAP1 RETURN JUMPDEST PUSH1 0x0 DUP1 PUSH2 0x207 PUSH2 0x98C JUMP JUMPDEST SWAP1 POP DUP3 PUSH1 0x4 PUSH1 0x0 DUP4 PUSH20 0xFFFFFFFFFFFFFFFFFFFFFFFFFFFFFFFFFFFFFFFF AND PUSH20 0xFFFFFFFFFFFFFFFFFFFFFFFFFFFFFFFFFFFFFFFF AND DUP2 MSTORE PUSH1 0x20 ADD SWAP1 DUP2 MSTORE PUSH1 0x20 ADD PUSH1 0x0 KECCAK256 PUSH1 0x0 DUP7 PUSH20 0xFFFFFFFFFFFFFFFFFFFFFFFFFFFFFFFFFFFFFFFF AND PUSH20 0xFFFFFFFFFFFFFFFFFFFFFFFFFFFFFFFFFFFFFFFF AND DUP2 MSTORE PUSH1 0x20 ADD SWAP1 DUP2 MSTORE PUSH1 0x20 ADD PUSH1 0x0 KECCAK256 DUP2 SWAP1 SSTORE POP DUP4 PUSH20 0xFFFFFFFFFFFFFFFFFFFFFFFFFFFFFFFFFFFFFFFF AND DUP2 PUSH20 0xFFFFFFFFFFFFFFFFFFFFFFFFFFFFFFFFFFFFFFFF AND PUSH32 0x8C5BE1E5EBEC7D5BD14F71427D1E84F3DD0314C0F7B2291E5B200AC8C7C3B925 DUP6 PUSH1 0x40 MLOAD PUSH2 0x2E7 SWAP2 SWAP1 PUSH2 0xDFF JUMP JUMPDEST PUSH1 0x40 MLOAD DUP1 SWAP2 SUB SWAP1 LOG3 PUSH1 0x1 SWAP2 POP POP SWAP3 SWAP2 POP POP JUMP JUMPDEST PUSH1 0x0 DUP1 SLOAD SWAP1 POP SWAP1 JUMP JUMPDEST PUSH1 0x0 DUP1 PUSH20 0xFFFFFFFFFFFFFFFFFFFFFFFFFFFFFFFFFFFFFFFF AND DUP5 PUSH20 0xFFFFFFFFFFFFFFFFFFFFFFFFFFFFFFFFFFFFFFFF AND SUB PUSH2 0x373 JUMPI PUSH1 0x40 MLOAD PUSH32 0x8C379A000000000000000000000000000000000000000000000000000000000 DUP2 MSTORE PUSH1 0x4 ADD PUSH2 0x36A SWAP1 PUSH2 0xF8E JUMP JUMPDEST PUSH1 0x40 MLOAD DUP1 SWAP2 SUB SWAP1 REVERT JUMPDEST PUSH1 0x0 PUSH20 0xFFFFFFFFFFFFFFFFFFFFFFFFFFFFFFFFFFFFFFFF AND DUP4 PUSH20 0xFFFFFFFFFFFFFFFFFFFFFFFFFFFFFFFFFFFFFFFF AND SUB PUSH2 0x3E2 JUMPI PUSH1 0x40 MLOAD PUSH32 0x8C379A000000000000000000000000000000000000000000000000000000000 DUP2 MSTORE PUSH1 0x4 ADD PUSH2 0x3D9 SWAP1 PUSH2 0xFFA JUMP JUMPDEST PUSH1 0x40 MLOAD DUP1 SWAP2 SUB SWAP1 REVERT JUMPDEST PUSH1 0x0 PUSH1 0x3 PUSH1 0x0 DUP7 PUSH20 0xFFFFFFFFFFFFFFFFFFFFFFFFFFFFFFFFFFFFFFFF AND PUSH20 0xFFFFFFFFFFFFFFFFFFFFFFFFFFFFFFFFFFFFFFFF AND DUP2 MSTORE PUSH1 0x20 ADD SWAP1 DUP2 MSTORE PUSH1 0x20 ADD PUSH1 0x0 KECCAK256 SLOAD SWAP1 POP PUSH1 0x0 PUSH1 0x4 PUSH1 0x0 DUP8 PUSH20 0xFFFFFFFFFFFFFFFFFFFFFFFFFFFFFFFFFFFFFFFF AND PUSH20 0xFFFFFFFFFFFFFFFFFFFFFFFFFFFFFFFFFFFFFFFF AND DUP2 MSTORE PUSH1 0x20 ADD SWAP1 DUP2 MSTORE PUSH1 0x20 ADD PUSH1 0x0 KECCAK256 PUSH1 0x0 CALLER PUSH20 0xFFFFFFFFFFFFFFFFFFFFFFFFFFFFFFFFFFFFFFFF AND PUSH20 0xFFFFFFFFFFFFFFFFFFFFFFFFFFFFFFFFFFFFFFFF AND DUP2 MSTORE PUSH1 0x20 ADD SWAP1 DUP2 MSTORE PUSH1 0x20 ADD PUSH1 0x0 KECCAK256 SLOAD SWAP1 POP DUP2 DUP5 GT ISZERO PUSH2 0x4EA JUMPI PUSH1 0x40 MLOAD PUSH32 0x8C379A000000000000000000000000000000000000000000000000000000000 DUP2 MSTORE PUSH1 0x4 ADD PUSH2 0x4E1 SWAP1 PUSH2 0x10B2 JUMP JUMPDEST PUSH1 0x40 MLOAD DUP1 SWAP2 SUB SWAP1 REVERT JUMPDEST DUP1 DUP5 GT ISZERO PUSH2 0x52D JUMPI PUSH1 0x40 MLOAD PUSH32 0x8C379A000000000000000000000000000000000000000000000000000000000 DUP2 MSTORE PUSH1 0x4 ADD PUSH2 0x524 SWAP1 PUSH2 0x1144 JUMP JUMPDEST PUSH1 0x40 MLOAD DUP1 SWAP2 SUB SWAP1 REVERT JUMPDEST DUP4 PUSH1 0x3 PUSH1 0x0 DUP9 PUSH20 0xFFFFFFFFFFFFFFFFFFFFFFFFFFFFFFFFFFFFFFFF AND PUSH20 0xFFFFFFFFFFFFFFFFFFFFFFFFFFFFFFFFFFFFFFFF AND DUP2 MSTORE PUSH1 0x20 ADD SWAP1 DUP2 MSTORE PUSH1 0x20 ADD PUSH1 0x0 KECCAK256 SLOAD PUSH2 0x578 SWAP2 SWAP1 PUSH2 0x1193 JUMP JUMPDEST PUSH1 0x3 PUSH1 0x0 DUP9 PUSH20 0xFFFFFFFFFFFFFFFFFFFFFFFFFFFFFFFFFFFFFFFF AND PUSH20 0xFFFFFFFFFFFFFFFFFFFFFFFFFFFFFFFFFFFFFFFF AND DUP2 MSTORE PUSH1 0x20 ADD SWAP1 DUP2 MSTORE PUSH1 0x20 ADD PUSH1 0x0 KECCAK256 DUP2 SWAP1 SSTORE POP DUP4 PUSH1 0x4 PUSH1 0x0 DUP9 PUSH20 0xFFFFFFFFFFFFFFFFFFFFFFFFFFFFFFFFFFFFFFFF AND PUSH20 0xFFFFFFFFFFFFFFFFFFFFFFFFFFFFFFFFFFFFFFFF AND DUP2 MSTORE PUSH1 0x20 ADD SWAP1 DUP2 MSTORE PUSH1 0x20 ADD PUSH1 0x0 KECCAK256 PUSH1 0x0 CALLER PUSH20 0xFFFFFFFFFFFFFFFFFFFFFFFFFFFFFFFFFFFFFFFF AND PUSH20 0xFFFFFFFFFFFFFFFFFFFFFFFFFFFFFFFFFFFFFFFF AND DUP2 MSTORE PUSH1 0x20 ADD SWAP1 DUP2 MSTORE PUSH1 0x20 ADD PUSH1 0x0 KECCAK256 SLOAD PUSH2 0x643 SWAP2 SWAP1 PUSH2 0x1193 JUMP JUMPDEST PUSH1 0x4 PUSH1 0x0 DUP9 PUSH20 0xFFFFFFFFFFFFFFFFFFFFFFFFFFFFFFFFFFFFFFFF AND PUSH20 0xFFFFFFFFFFFFFFFFFFFFFFFFFFFFFFFFFFFFFFFF AND DUP2 MSTORE PUSH1 0x20 ADD SWAP1 DUP2 MSTORE PUSH1 0x20 ADD PUSH1 0x0 KECCAK256 PUSH1 0x0 CALLER PUSH20 0xFFFFFFFFFFFFFFFFFFFFFFFFFFFFFFFFFFFFFFFF AND PUSH20 0xFFFFFFFFFFFFFFFFFFFFFFFFFFFFFFFFFFFFFFFF AND DUP2 MSTORE PUSH1 0x20 ADD SWAP1 DUP2 MSTORE PUSH1 0x20 ADD PUSH1 0x0 KECCAK256 DUP2 SWAP1 SSTORE POP DUP4 PUSH1 0x3 PUSH1 0x0 DUP8 PUSH20 0xFFFFFFFFFFFFFFFFFFFFFFFFFFFFFFFFFFFFFFFF AND PUSH20 0xFFFFFFFFFFFFFFFFFFFFFFFFFFFFFFFFFFFFFFFF AND DUP2 MSTORE PUSH1 0x20 ADD SWAP1 DUP2 MSTORE PUSH1 0x20 ADD PUSH1 0x0 KECCAK256 SLOAD PUSH2 0x70E SWAP2 SWAP1 PUSH2 0x11C7 JUMP JUMPDEST PUSH1 0x3 PUSH1 0x0 DUP8 PUSH20 0xFFFFFFFFFFFFFFFFFFFFFFFFFFFFFFFFFFFFFFFF AND PUSH20 0xFFFFFFFFFFFFFFFFFFFFFFFFFFFFFFFFFFFFFFFF AND DUP2 MSTORE PUSH1 0x20 ADD SWAP1 DUP2 MSTORE PUSH1 0x20 ADD PUSH1 0x0 KECCAK256 DUP2 SWAP1 SSTORE POP DUP5 PUSH20 0xFFFFFFFFFFFFFFFFFFFFFFFFFFFFFFFFFFFFFFFF AND DUP7 PUSH20 0xFFFFFFFFFFFFFFFFFFFFFFFFFFFFFFFFFFFFFFFF AND PUSH32 0xDDF252AD1BE2C89B69C2B068FC378DAA952BA7F163C4A11628F55A4DF523B3EF DUP7 PUSH1 0x40 MLOAD PUSH2 0x7AE SWAP2 SWAP1 PUSH2 0xDFF JUMP JUMPDEST PUSH1 0x40 MLOAD DUP1 SWAP2 SUB SWAP1 LOG3 PUSH1 0x1 SWAP3 POP POP POP SWAP4 SWAP3 POP POP POP JUMP JUMPDEST PUSH1 0x0 PUSH2 0x7CD PUSH2 0x98C JUMP JUMPDEST SWAP1 POP DUP2 PUSH1 0x3 PUSH1 0x0 DUP6 PUSH20 0xFFFFFFFFFFFFFFFFFFFFFFFFFFFFFFFFFFFFFFFF AND PUSH20 0xFFFFFFFFFFFFFFFFFFFFFFFFFFFFFFFFFFFFFFFF AND DUP2 MSTORE PUSH1 0x20 ADD SWAP1 DUP2 MSTORE PUSH1 0x20 ADD PUSH1 0x0 KECCAK256 PUSH1 0x0 DUP3 DUP3 SLOAD PUSH2 0x81E SWAP2 SWAP1 PUSH2 0x11C7 JUMP JUMPDEST SWAP3 POP POP DUP2 SWAP1 SSTORE POP DUP2 PUSH1 0x0 DUP1 DUP3 DUP3 SLOAD PUSH2 0x836 SWAP2 SWAP1 PUSH2 0x11C7 JUMP JUMPDEST SWAP3 POP POP DUP2 SWAP1 SSTORE POP DUP1 PUSH20 0xFFFFFFFFFFFFFFFFFFFFFFFFFFFFFFFFFFFFFFFF AND PUSH1 0x0 PUSH20 0xFFFFFFFFFFFFFFFFFFFFFFFFFFFFFFFFFFFFFFFF AND PUSH32 0xDDF252AD1BE2C89B69C2B068FC378DAA952BA7F163C4A11628F55A4DF523B3EF DUP5 PUSH1 0x40 MLOAD PUSH2 0x89B SWAP2 SWAP1 PUSH2 0xDFF JUMP JUMPDEST PUSH1 0x40 MLOAD DUP1 SWAP2 SUB SWAP1 LOG3 POP POP POP JUMP JUMPDEST PUSH1 0x0 PUSH2 0x8B2 PUSH2 0x98C JUMP JUMPDEST SWAP1 POP DUP2 PUSH1 0x3 PUSH1 0x0 DUP4 PUSH20 0xFFFFFFFFFFFFFFFFFFFFFFFFFFFFFFFFFFFFFFFF AND PUSH20 0xFFFFFFFFFFFFFFFFFFFFFFFFFFFFFFFFFFFFFFFF AND DUP2 MSTORE PUSH1 0x20 ADD SWAP1 DUP2 MSTORE PUSH1 0x20 ADD PUSH1 0x0 KECCAK256 PUSH1 0x0 DUP3 DUP3 SLOAD PUSH2 0x903 SWAP2 SWAP1 PUSH2 0x1193 JUMP JUMPDEST SWAP3 POP POP DUP2 SWAP1 SSTORE POP DUP2 PUSH1 0x0 DUP1 DUP3 DUP3 SLOAD PUSH2 0x91B SWAP2 SWAP1 PUSH2 0x1193 JUMP JUMPDEST SWAP3 POP POP DUP2 SWAP1 SSTORE POP PUSH1 0x0 PUSH20 0xFFFFFFFFFFFFFFFFFFFFFFFFFFFFFFFFFFFFFFFF AND DUP2 PUSH20 0xFFFFFFFFFFFFFFFFFFFFFFFFFFFFFFFFFFFFFFFF AND PUSH32 0xDDF252AD1BE2C89B69C2B068FC378DAA952BA7F163C4A11628F55A4DF523B3EF DUP5 PUSH1 0x40 MLOAD PUSH2 0x980 SWAP2 SWAP1 PUSH2 0xDFF JUMP JUMPDEST PUSH1 0x40 MLOAD DUP1 SWAP2 SUB SWAP1 LOG3 POP POP JUMP JUMPDEST PUSH1 0x0 CALLER SWAP1 POP SWAP1 JUMP JUMPDEST PUSH1 0x0 PUSH1 0x3 PUSH1 0x0 DUP4 PUSH20 0xFFFFFFFFFFFFFFFFFFFFFFFFFFFFFFFFFFFFFFFF AND PUSH20 0xFFFFFFFFFFFFFFFFFFFFFFFFFFFFFFFFFFFFFFFF AND DUP2 MSTORE PUSH1 0x20 ADD SWAP1 DUP2 MSTORE PUSH1 0x20 ADD PUSH1 0x0 KECCAK256 SLOAD SWAP1 POP SWAP2 SWAP1 POP JUMP JUMPDEST PUSH1 0x0 DUP1 PUSH2 0x9E8 PUSH2 0x98C JUMP JUMPDEST SWAP1 POP PUSH1 0x0 PUSH20 0xFFFFFFFFFFFFFFFFFFFFFFFFFFFFFFFFFFFFFFFF AND DUP2 PUSH20 0xFFFFFFFFFFFFFFFFFFFFFFFFFFFFFFFFFFFFFFFF AND SUB PUSH2 0xA59 JUMPI PUSH1 0x40 MLOAD PUSH32 0x8C379A000000000000000000000000000000000000000000000000000000000 DUP2 MSTORE PUSH1 0x4 ADD PUSH2 0xA50 SWAP1 PUSH2 0xF8E JUMP JUMPDEST PUSH1 0x40 MLOAD DUP1 SWAP2 SUB SWAP1 REVERT JUMPDEST PUSH1 0x0 PUSH20 0xFFFFFFFFFFFFFFFFFFFFFFFFFFFFFFFFFFFFFFFF AND DUP5 PUSH20 0xFFFFFFFFFFFFFFFFFFFFFFFFFFFFFFFFFFFFFFFF AND SUB PUSH2 0xAC8 JUMPI PUSH1 0x40 MLOAD PUSH32 0x8C379A000000000000000000000000000000000000000000000000000000000 DUP2 MSTORE PUSH1 0x4 ADD PUSH2 0xABF SWAP1 PUSH2 0xFFA JUMP JUMPDEST PUSH1 0x40 MLOAD DUP1 SWAP2 SUB SWAP1 REVERT JUMPDEST PUSH1 0x0 PUSH1 0x3 PUSH1 0x0 DUP4 PUSH20 0xFFFFFFFFFFFFFFFFFFFFFFFFFFFFFFFFFFFFFFFF AND PUSH20 0xFFFFFFFFFFFFFFFFFFFFFFFFFFFFFFFFFFFFFFFF AND DUP2 MSTORE PUSH1 0x20 ADD SWAP1 DUP2 MSTORE PUSH1 0x20 ADD PUSH1 0x0 KECCAK256 SLOAD SWAP1 POP DUP4 DUP2 PUSH2 0xB18 SWAP2 SWAP1 PUSH2 0x1193 JUMP JUMPDEST PUSH1 0x3 PUSH1 0x0 DUP5 PUSH20 0xFFFFFFFFFFFFFFFFFFFFFFFFFFFFFFFFFFFFFFFF AND PUSH20 0xFFFFFFFFFFFFFFFFFFFFFFFFFFFFFFFFFFFFFFFF AND DUP2 MSTORE PUSH1 0x20 ADD SWAP1 DUP2 MSTORE PUSH1 0x20 ADD PUSH1 0x0 KECCAK256 DUP2 SWAP1 SSTORE POP DUP4 PUSH1 0x3 PUSH1 0x0 DUP8 PUSH20 0xFFFFFFFFFFFFFFFFFFFFFFFFFFFFFFFFFFFFFFFF AND PUSH20 0xFFFFFFFFFFFFFFFFFFFFFFFFFFFFFFFFFFFFFFFF AND DUP2 MSTORE PUSH1 0x20 ADD SWAP1 DUP2 MSTORE PUSH1 0x20 ADD PUSH1 0x0 KECCAK256 SLOAD PUSH2 0xBA6 SWAP2 SWAP1 PUSH2 0x11C7 JUMP JUMPDEST PUSH1 0x3 PUSH1 0x0 DUP8 PUSH20 0xFFFFFFFFFFFFFFFFFFFFFFFFFFFFFFFFFFFFFFFF AND PUSH20 0xFFFFFFFFFFFFFFFFFFFFFFFFFFFFFFFFFFFFFFFF AND DUP2 MSTORE PUSH1 0x20 ADD SWAP1 DUP2 MSTORE PUSH1 0x20 ADD PUSH1 0x0 KECCAK256 DUP2 SWAP1 SSTORE POP DUP5 PUSH20 0xFFFFFFFFFFFFFFFFFFFFFFFFFFFFFFFFFFFFFFFF AND DUP3 PUSH20 0xFFFFFFFFFFFFFFFFFFFFFFFFFFFFFFFFFFFFFFFF AND PUSH32 0xDDF252AD1BE2C89B69C2B068FC378DAA952BA7F163C4A11628F55A4DF523B3EF DUP7 PUSH1 0x40 MLOAD PUSH2 0xC46 SWAP2 SWAP1 PUSH2 0xDFF JUMP JUMPDEST PUSH1 0x40 MLOAD DUP1 SWAP2 SUB SWAP1 LOG3 PUSH1 0x1 SWAP3 POP POP POP SWAP3 SWAP2 POP POP JUMP JUMPDEST PUSH1 0x0 PUSH1 0x4 PUSH1 0x0 DUP5 PUSH20 0xFFFFFFFFFFFFFFFFFFFFFFFFFFFFFFFFFFFFFFFF AND PUSH20 0xFFFFFFFFFFFFFFFFFFFFFFFFFFFFFFFFFFFFFFFF AND DUP2 MSTORE PUSH1 0x20 ADD SWAP1 DUP2 MSTORE PUSH1 0x20 ADD PUSH1 0x0 KECCAK256 PUSH1 0x0 DUP4 PUSH20 0xFFFFFFFFFFFFFFFFFFFFFFFFFFFFFFFFFFFFFFFF AND PUSH20 0xFFFFFFFFFFFFFFFFFFFFFFFFFFFFFFFFFFFFFFFF AND DUP2 MSTORE PUSH1 0x20 ADD SWAP1 DUP2 MSTORE PUSH1 0x20 ADD PUSH1 0x0 KECCAK256 SLOAD SWAP1 POP SWAP3 SWAP2 POP POP JUMP JUMPDEST PUSH1 0x0 DUP1 REVERT JUMPDEST PUSH1 0x0 PUSH20 0xFFFFFFFFFFFFFFFFFFFFFFFFFFFFFFFFFFFFFFFF DUP3 AND SWAP1 POP SWAP2 SWAP1 POP JUMP JUMPDEST PUSH1 0x0 PUSH2 0xD11 DUP3 PUSH2 0xCE6 JUMP JUMPDEST SWAP1 POP SWAP2 SWAP1 POP JUMP JUMPDEST PUSH2 0xD21 DUP2 PUSH2 0xD06 JUMP JUMPDEST DUP2 EQ PUSH2 0xD2C JUMPI PUSH1 0x0 DUP1 REVERT JUMPDEST POP JUMP JUMPDEST PUSH1 0x0 DUP2 CALLDATALOAD SWAP1 POP PUSH2 0xD3E DUP2 PUSH2 0xD18 JUMP JUMPDEST SWAP3 SWAP2 POP POP JUMP JUMPDEST PUSH1 0x0 DUP2 SWAP1 POP SWAP2 SWAP1 POP JUMP JUMPDEST PUSH2 0xD57 DUP2 PUSH2 0xD44 JUMP JUMPDEST DUP2 EQ PUSH2 0xD62 JUMPI PUSH1 0x0 DUP1 REVERT JUMPDEST POP JUMP JUMPDEST PUSH1 0x0 DUP2 CALLDATALOAD SWAP1 POP PUSH2 0xD74 DUP2 PUSH2 0xD4E JUMP JUMPDEST SWAP3 SWAP2 POP POP JUMP JUMPDEST PUSH1 0x0 DUP1 PUSH1 0x40 DUP4 DUP6 SUB SLT ISZERO PUSH2 0xD91 JUMPI PUSH2 0xD90 PUSH2 0xCE1 JUMP JUMPDEST JUMPDEST PUSH1 0x0 PUSH2 0xD9F DUP6 DUP3 DUP7 ADD PUSH2 0xD2F JUMP JUMPDEST SWAP3 POP POP PUSH1 0x20 PUSH2 0xDB0 DUP6 DUP3 DUP7 ADD PUSH2 0xD65 JUMP JUMPDEST SWAP2 POP POP SWAP3 POP SWAP3 SWAP1 POP JUMP JUMPDEST PUSH1 0x0 DUP2 ISZERO ISZERO SWAP1 POP SWAP2 SWAP1 POP JUMP JUMPDEST PUSH2 0xDCF DUP2 PUSH2 0xDBA JUMP JUMPDEST DUP3 MSTORE POP POP JUMP JUMPDEST PUSH1 0x0 PUSH1 0x20 DUP3 ADD SWAP1 POP PUSH2 0xDEA PUSH1 0x0 DUP4 ADD DUP5 PUSH2 0xDC6 JUMP JUMPDEST SWAP3 SWAP2 POP POP JUMP JUMPDEST PUSH2 0xDF9 DUP2 PUSH2 0xD44 JUMP JUMPDEST DUP3 MSTORE POP POP JUMP JUMPDEST PUSH1 0x0 PUSH1 0x20 DUP3 ADD SWAP1 POP PUSH2 0xE14 PUSH1 0x0 DUP4 ADD DUP5 PUSH2 0xDF0 JUMP JUMPDEST SWAP3 SWAP2 POP POP JUMP JUMPDEST PUSH1 0x0 DUP1 PUSH1 0x0 PUSH1 0x60 DUP5 DUP7 SUB SLT ISZERO PUSH2 0xE33 JUMPI PUSH2 0xE32 PUSH2 0xCE1 JUMP JUMPDEST JUMPDEST PUSH1 0x0 PUSH2 0xE41 DUP7 DUP3 DUP8 ADD PUSH2 0xD2F JUMP JUMPDEST SWAP4 POP POP PUSH1 0x20 PUSH2 0xE52 DUP7 DUP3 DUP8 ADD PUSH2 0xD2F JUMP JUMPDEST SWAP3 POP POP PUSH1 0x40 PUSH2 0xE63 DUP7 DUP3 DUP8 ADD PUSH2 0xD65 JUMP JUMPDEST SWAP2 POP POP SWAP3 POP SWAP3 POP SWAP3 JUMP JUMPDEST PUSH1 0x0 PUSH1 0x20 DUP3 DUP5 SUB SLT ISZERO PUSH2 0xE83 JUMPI PUSH2 0xE82 PUSH2 0xCE1 JUMP JUMPDEST JUMPDEST PUSH1 0x0 PUSH2 0xE91 DUP5 DUP3 DUP6 ADD PUSH2 0xD65 JUMP JUMPDEST SWAP2 POP POP SWAP3 SWAP2 POP POP JUMP JUMPDEST PUSH2 0xEA3 DUP2 PUSH2 0xD06 JUMP JUMPDEST DUP3 MSTORE POP POP JUMP JUMPDEST PUSH1 0x0 PUSH1 0x20 DUP3 ADD SWAP1 POP PUSH2 0xEBE PUSH1 0x0 DUP4 ADD DUP5 PUSH2 0xE9A JUMP JUMPDEST SWAP3 SWAP2 POP POP JUMP JUMPDEST PUSH1 0x0 PUSH1 0x20 DUP3 DUP5 SUB SLT ISZERO PUSH2 0xEDA JUMPI PUSH2 0xED9 PUSH2 0xCE1 JUMP JUMPDEST JUMPDEST PUSH1 0x0 PUSH2 0xEE8 DUP5 DUP3 DUP6 ADD PUSH2 0xD2F JUMP JUMPDEST SWAP2 POP POP SWAP3 SWAP2 POP POP JUMP JUMPDEST PUSH1 0x0 DUP1 PUSH1 0x40 DUP4 DUP6 SUB SLT ISZERO PUSH2 0xF08 JUMPI PUSH2 0xF07 PUSH2 0xCE1 JUMP JUMPDEST JUMPDEST PUSH1 0x0 PUSH2 0xF16 DUP6 DUP3 DUP7 ADD PUSH2 0xD2F JUMP JUMPDEST SWAP3 POP POP PUSH1 0x20 PUSH2 0xF27 DUP6 DUP3 DUP7 ADD PUSH2 0xD2F JUMP JUMPDEST SWAP2 POP POP SWAP3 POP SWAP3 SWAP1 POP JUMP JUMPDEST PUSH1 0x0 DUP3 DUP3 MSTORE PUSH1 0x20 DUP3 ADD SWAP1 POP SWAP3 SWAP2 POP POP JUMP JUMPDEST PUSH32 0x73656E6465722061646472657373206D75737420657869737400000000000000 PUSH1 0x0 DUP3 ADD MSTORE POP JUMP JUMPDEST PUSH1 0x0 PUSH2 0xF78 PUSH1 0x19 DUP4 PUSH2 0xF31 JUMP JUMPDEST SWAP2 POP PUSH2 0xF83 DUP3 PUSH2 0xF42 JUMP JUMPDEST PUSH1 0x20 DUP3 ADD SWAP1 POP SWAP2 SWAP1 POP JUMP JUMPDEST PUSH1 0x0 PUSH1 0x20 DUP3 ADD SWAP1 POP DUP2 DUP2 SUB PUSH1 0x0 DUP4 ADD MSTORE PUSH2 0xFA7 DUP2 PUSH2 0xF6B JUMP JUMPDEST SWAP1 POP SWAP2 SWAP1 POP JUMP JUMPDEST PUSH32 0x726563656970656E742061646472657373206D75737420657869737400000000 PUSH1 0x0 DUP3 ADD MSTORE POP JUMP JUMPDEST PUSH1 0x0 PUSH2 0xFE4 PUSH1 0x1C DUP4 PUSH2 0xF31 JUMP JUMPDEST SWAP2 POP PUSH2 0xFEF DUP3 PUSH2 0xFAE JUMP JUMPDEST PUSH1 0x20 DUP3 ADD SWAP1 POP SWAP2 SWAP1 POP JUMP JUMPDEST PUSH1 0x0 PUSH1 0x20 DUP3 ADD SWAP1 POP DUP2 DUP2 SUB PUSH1 0x0 DUP4 ADD MSTORE PUSH2 0x1013 DUP2 PUSH2 0xFD7 JUMP JUMPDEST SWAP1 POP SWAP2 SWAP1 POP JUMP JUMPDEST PUSH32 0x6F776E65722062616C616E63652073686F756C6420626520657175616C206F72 PUSH1 0x0 DUP3 ADD MSTORE PUSH32 0x206D6F7265207468656E2074686520616D6F756E7420746F207472616E736665 PUSH1 0x20 DUP3 ADD MSTORE PUSH32 0x722E000000000000000000000000000000000000000000000000000000000000 PUSH1 0x40 DUP3 ADD MSTORE POP JUMP JUMPDEST PUSH1 0x0 PUSH2 0x109C PUSH1 0x42 DUP4 PUSH2 0xF31 JUMP JUMPDEST SWAP2 POP PUSH2 0x10A7 DUP3 PUSH2 0x101A JUMP JUMPDEST PUSH1 0x60 DUP3 ADD SWAP1 POP SWAP2 SWAP1 POP JUMP JUMPDEST PUSH1 0x0 PUSH1 0x20 DUP3 ADD SWAP1 POP DUP2 DUP2 SUB PUSH1 0x0 DUP4 ADD MSTORE PUSH2 0x10CB DUP2 PUSH2 0x108F JUMP JUMPDEST SWAP1 POP SWAP2 SWAP1 POP JUMP JUMPDEST PUSH32 0x616C6C6F77656420746F6B656E2073686F756C64206265206D6F726520746865 PUSH1 0x0 DUP3 ADD MSTORE PUSH32 0x6E2074686520616D6F756E742077652077616E7420746F207472616E73666572 PUSH1 0x20 DUP3 ADD MSTORE POP JUMP JUMPDEST PUSH1 0x0 PUSH2 0x112E PUSH1 0x40 DUP4 PUSH2 0xF31 JUMP JUMPDEST SWAP2 POP PUSH2 0x1139 DUP3 PUSH2 0x10D2 JUMP JUMPDEST PUSH1 0x40 DUP3 ADD SWAP1 POP SWAP2 SWAP1 POP JUMP JUMPDEST PUSH1 0x0 PUSH1 0x20 DUP3 ADD SWAP1 POP DUP2 DUP2 SUB PUSH1 0x0 DUP4 ADD MSTORE PUSH2 0x115D DUP2 PUSH2 0x1121 JUMP JUMPDEST SWAP1 POP SWAP2 SWAP1 POP JUMP JUMPDEST PUSH32 0x4E487B7100000000000000000000000000000000000000000000000000000000 PUSH1 0x0 MSTORE PUSH1 0x11 PUSH1 0x4 MSTORE PUSH1 0x24 PUSH1 0x0 REVERT JUMPDEST PUSH1 0x0 PUSH2 0x119E DUP3 PUSH2 0xD44 JUMP JUMPDEST SWAP2 POP PUSH2 0x11A9 DUP4 PUSH2 0xD44 JUMP JUMPDEST SWAP3 POP DUP3 DUP3 SUB SWAP1 POP DUP2 DUP2 GT ISZERO PUSH2 0x11C1 JUMPI PUSH2 0x11C0 PUSH2 0x1164 JUMP JUMPDEST JUMPDEST SWAP3 SWAP2 POP POP JUMP JUMPDEST PUSH1 0x0 PUSH2 0x11D2 DUP3 PUSH2 0xD44 JUMP JUMPDEST SWAP2 POP PUSH2 0x11DD DUP4 PUSH2 0xD44 JUMP JUMPDEST SWAP3 POP DUP3 DUP3 ADD SWAP1 POP DUP1 DUP3 GT ISZERO PUSH2 0x11F5 JUMPI PUSH2 0x11F4 PUSH2 0x1164 JUMP JUMPDEST JUMPDEST SWAP3 SWAP2 POP POP JUMP INVALID LOG2 PUSH5 0x6970667358 0x22 SLT KECCAK256 ADD EXTCODESIZE SWAP3 DUP15 CALLVALUE COINBASE 0xBC DUP16 0xD1 0x27 0x5D 0xD4 0x4C XOR PUSH23 0x895111DE43257DBD8094740367D115126F64736F6C6343 STOP ADDMOD SLT STOP CALLER "
				},
				"gasEstimates": {
					"creation": {
						"codeDepositCost": "931400",
						"executionCost": "968",
						"totalCost": "932368"
					},
					"external": {
						"allowance(address,address)": "infinite",
						"approve(address,uint256)": "infinite",
						"balanceOf(address)": "2885",
						"burn(uint256)": "infinite",
						"mint(address,uint256)": "infinite",
						"senderAddress()": "407",
						"totalSupply()": "2460",
						"transfer(address,uint256)": "infinite",
						"transferFrom(address,address,uint256)": "infinite"
					}
				},
				"methodIdentifiers": {
					"allowance(address,address)": "dd62ed3e",
					"approve(address,uint256)": "095ea7b3",
					"balanceOf(address)": "70a08231",
					"burn(uint256)": "42966c68",
					"mint(address,uint256)": "40c10f19",
					"senderAddress()": "4fc84791",
					"totalSupply()": "18160ddd",
					"transfer(address,uint256)": "a9059cbb",
					"transferFrom(address,address,uint256)": "23b872dd"
				}
			},
			"storageLayout": {
				"storage": [
					{
						"astId": 6,
						"contract": "erc-20.sol:bankToken",
						"label": "totalSupplyVal",
						"offset": 0,
						"slot": "0",
						"type": "t_uint256"
					},
					{
						"astId": 8,
						"contract": "erc-20.sol:bankToken",
						"label": "bankCommision",
						"offset": 0,
						"slot": "1",
						"type": "t_uint256"
					},
					{
						"astId": 10,
						"contract": "erc-20.sol:bankToken",
						"label": "transactionCharge",
						"offset": 0,
						"slot": "2",
						"type": "t_uint256"
					},
					{
						"astId": 14,
						"contract": "erc-20.sol:bankToken",
						"label": "_balanceOfAddresses",
						"offset": 0,
						"slot": "3",
						"type": "t_mapping(t_address,t_uint256)"
					},
					{
						"astId": 20,
						"contract": "erc-20.sol:bankToken",
						"label": "_allowances",
						"offset": 0,
						"slot": "4",
						"type": "t_mapping(t_address,t_mapping(t_address,t_uint256))"
					}
				],
				"types": {
					"t_address": {
						"encoding": "inplace",
						"label": "address",
						"numberOfBytes": "20"
					},
					"t_mapping(t_address,t_mapping(t_address,t_uint256))": {
						"encoding": "mapping",
						"key": "t_address",
						"label": "mapping(address => mapping(address => uint256))",
						"numberOfBytes": "32",
						"value": "t_mapping(t_address,t_uint256)"
					},
					"t_mapping(t_address,t_uint256)": {
						"encoding": "mapping",
						"key": "t_address",
						"label": "mapping(address => uint256)",
						"numberOfBytes": "32",
						"value": "t_uint256"
					},
					"t_uint256": {
						"encoding": "inplace",
						"label": "uint256",
						"numberOfBytes": "32"
					}
				}
			},
			"userdoc": {
				"kind": "user",
				"methods": {},
				"version": 1
			}
		}
	}
}